{
  "_format": "hh-sol-artifact-1",
  "contractName": "MembershipSBT",
  "sourceName": "contracts/MembershipSBT.sol",
  "abi": [
    {
      "inputs": [
        {
          "internalType": "string",
          "name": "name",
          "type": "string"
        },
        {
          "internalType": "string",
          "name": "symbol",
          "type": "string"
        },
        {
          "internalType": "string",
          "name": "baseURI",
          "type": "string"
        },
        {
          "internalType": "uint256",
          "name": "_maxSupply",
          "type": "uint256"
        },
        {
          "internalType": "enum IERC5484.BurnAuth",
          "name": "defaultBurnAuth",
          "type": "uint8"
        },
        {
          "internalType": "address",
          "name": "initialOwner",
          "type": "address"
        }
      ],
      "stateMutability": "nonpayable",
      "type": "constructor"
    },
    {
      "inputs": [
        {
          "internalType": "address",
          "name": "sender",
          "type": "address"
        },
        {
          "internalType": "uint256",
          "name": "tokenId",
          "type": "uint256"
        },
        {
          "internalType": "address",
          "name": "owner",
          "type": "address"
        }
      ],
      "name": "ERC721IncorrectOwner",
      "type": "error"
    },
    {
      "inputs": [
        {
          "internalType": "address",
          "name": "operator",
          "type": "address"
        },
        {
          "internalType": "uint256",
          "name": "tokenId",
          "type": "uint256"
        }
      ],
      "name": "ERC721InsufficientApproval",
      "type": "error"
    },
    {
      "inputs": [
        {
          "internalType": "address",
          "name": "approver",
          "type": "address"
        }
      ],
      "name": "ERC721InvalidApprover",
      "type": "error"
    },
    {
      "inputs": [
        {
          "internalType": "address",
          "name": "operator",
          "type": "address"
        }
      ],
      "name": "ERC721InvalidOperator",
      "type": "error"
    },
    {
      "inputs": [
        {
          "internalType": "address",
          "name": "owner",
          "type": "address"
        }
      ],
      "name": "ERC721InvalidOwner",
      "type": "error"
    },
    {
      "inputs": [
        {
          "internalType": "address",
          "name": "receiver",
          "type": "address"
        }
      ],
      "name": "ERC721InvalidReceiver",
      "type": "error"
    },
    {
      "inputs": [
        {
          "internalType": "address",
          "name": "sender",
          "type": "address"
        }
      ],
      "name": "ERC721InvalidSender",
      "type": "error"
    },
    {
      "inputs": [
        {
          "internalType": "uint256",
          "name": "tokenId",
          "type": "uint256"
        }
      ],
      "name": "ERC721NonexistentToken",
      "type": "error"
    },
    {
      "inputs": [
        {
          "internalType": "address",
          "name": "owner",
          "type": "address"
        }
      ],
      "name": "OwnableInvalidOwner",
      "type": "error"
    },
    {
      "inputs": [
        {
          "internalType": "address",
          "name": "account",
          "type": "address"
        }
      ],
      "name": "OwnableUnauthorizedAccount",
      "type": "error"
    },
    {
      "anonymous": false,
      "inputs": [
        {
          "indexed": true,
          "internalType": "address",
          "name": "owner",
          "type": "address"
        },
        {
          "indexed": true,
          "internalType": "address",
          "name": "approved",
          "type": "address"
        },
        {
          "indexed": true,
          "internalType": "uint256",
          "name": "tokenId",
          "type": "uint256"
        }
      ],
      "name": "Approval",
      "type": "event"
    },
    {
      "anonymous": false,
      "inputs": [
        {
          "indexed": true,
          "internalType": "address",
          "name": "owner",
          "type": "address"
        },
        {
          "indexed": true,
          "internalType": "address",
          "name": "operator",
          "type": "address"
        },
        {
          "indexed": false,
          "internalType": "bool",
          "name": "approved",
          "type": "bool"
        }
      ],
      "name": "ApprovalForAll",
      "type": "event"
    },
    {
      "anonymous": false,
      "inputs": [
        {
          "indexed": false,
          "internalType": "string",
          "name": "baseURI",
          "type": "string"
        },
        {
          "indexed": false,
          "internalType": "string",
          "name": "image",
          "type": "string"
        },
        {
          "indexed": false,
          "internalType": "string",
          "name": "description",
          "type": "string"
        }
      ],
      "name": "BaseURISet",
      "type": "event"
    },
    {
      "anonymous": false,
      "inputs": [
        {
          "indexed": false,
          "internalType": "uint256",
          "name": "tokenId",
          "type": "uint256"
        },
        {
          "indexed": false,
          "internalType": "enum IERC5484.BurnAuth",
          "name": "burnAuth",
          "type": "uint8"
        }
      ],
      "name": "BurnAuthSet",
      "type": "event"
    },
    {
      "anonymous": false,
      "inputs": [
        {
          "indexed": true,
          "internalType": "address",
          "name": "from",
          "type": "address"
        },
        {
          "indexed": true,
          "internalType": "address",
          "name": "to",
          "type": "address"
        },
        {
          "indexed": true,
          "internalType": "uint256",
          "name": "tokenId",
          "type": "uint256"
        },
        {
          "indexed": false,
          "internalType": "enum IERC5484.BurnAuth",
          "name": "burnAuth",
          "type": "uint8"
        }
      ],
      "name": "Issued",
      "type": "event"
    },
    {
      "anonymous": false,
      "inputs": [
        {
          "indexed": false,
          "internalType": "uint256",
          "name": "tokenId",
          "type": "uint256"
        }
      ],
      "name": "Locked",
      "type": "event"
    },
    {
      "anonymous": false,
      "inputs": [
        {
          "indexed": false,
          "internalType": "uint256",
          "name": "maxSupply",
          "type": "uint256"
        }
      ],
      "name": "MaxSupplySet",
      "type": "event"
    },
    {
      "anonymous": false,
      "inputs": [
        {
          "indexed": true,
          "internalType": "address",
          "name": "previousOwner",
          "type": "address"
        },
        {
          "indexed": true,
          "internalType": "address",
          "name": "newOwner",
          "type": "address"
        }
      ],
      "name": "OwnershipTransferred",
      "type": "event"
    },
    {
      "anonymous": false,
      "inputs": [
        {
          "indexed": true,
          "internalType": "address",
          "name": "from",
          "type": "address"
        },
        {
          "indexed": true,
          "internalType": "address",
          "name": "to",
          "type": "address"
        },
        {
          "indexed": true,
          "internalType": "uint256",
          "name": "tokenId",
          "type": "uint256"
        }
      ],
      "name": "Transfer",
      "type": "event"
    },
    {
      "anonymous": false,
      "inputs": [
        {
          "indexed": false,
          "internalType": "uint256",
          "name": "tokenId",
          "type": "uint256"
        }
      ],
      "name": "Unlocked",
      "type": "event"
    },
    {
      "inputs": [
        {
          "internalType": "address",
          "name": "to",
          "type": "address"
        },
        {
          "internalType": "uint256",
          "name": "tokenId",
          "type": "uint256"
        }
      ],
      "name": "approve",
      "outputs": [],
      "stateMutability": "nonpayable",
      "type": "function"
    },
    {
      "inputs": [
        {
          "internalType": "address",
          "name": "owner",
          "type": "address"
        }
      ],
      "name": "balanceOf",
      "outputs": [
        {
          "internalType": "uint256",
          "name": "",
          "type": "uint256"
        }
      ],
      "stateMutability": "view",
      "type": "function"
    },
    {
      "inputs": [
        {
          "internalType": "uint256",
          "name": "tokenId",
          "type": "uint256"
        }
      ],
      "name": "burn",
      "outputs": [],
      "stateMutability": "nonpayable",
      "type": "function"
    },
    {
      "inputs": [
        {
          "internalType": "uint256",
          "name": "tokenId",
          "type": "uint256"
        }
      ],
      "name": "burnAuth",
      "outputs": [
        {
          "internalType": "enum IERC5484.BurnAuth",
          "name": "",
          "type": "uint8"
        }
      ],
      "stateMutability": "view",
      "type": "function"
    },
    {
      "inputs": [
        {
          "internalType": "uint256",
          "name": "tokenId",
          "type": "uint256"
        }
      ],
      "name": "getApproved",
      "outputs": [
        {
          "internalType": "address",
          "name": "",
          "type": "address"
        }
      ],
      "stateMutability": "view",
      "type": "function"
    },
    {
      "inputs": [
        {
          "internalType": "address",
          "name": "owner",
          "type": "address"
        },
        {
          "internalType": "address",
          "name": "operator",
          "type": "address"
        }
      ],
      "name": "isApprovedForAll",
      "outputs": [
        {
          "internalType": "bool",
          "name": "",
          "type": "bool"
        }
      ],
      "stateMutability": "view",
      "type": "function"
    },
    {
      "inputs": [
        {
          "internalType": "uint256",
          "name": "tokenId",
          "type": "uint256"
        }
      ],
      "name": "lock",
      "outputs": [],
      "stateMutability": "nonpayable",
      "type": "function"
    },
    {
      "inputs": [
        {
          "internalType": "uint256",
          "name": "tokenId",
          "type": "uint256"
        }
      ],
      "name": "locked",
      "outputs": [
        {
          "internalType": "bool",
          "name": "",
          "type": "bool"
        }
      ],
      "stateMutability": "view",
      "type": "function"
    },
    {
      "inputs": [],
      "name": "maxSupply",
      "outputs": [
        {
          "internalType": "uint256",
          "name": "",
          "type": "uint256"
        }
      ],
      "stateMutability": "view",
      "type": "function"
    },
    {
      "inputs": [],
      "name": "name",
      "outputs": [
        {
          "internalType": "string",
          "name": "",
          "type": "string"
        }
      ],
      "stateMutability": "view",
      "type": "function"
    },
    {
      "inputs": [],
      "name": "owner",
      "outputs": [
        {
          "internalType": "address",
          "name": "",
          "type": "address"
        }
      ],
      "stateMutability": "view",
      "type": "function"
    },
    {
      "inputs": [
        {
          "internalType": "uint256",
          "name": "tokenId",
          "type": "uint256"
        }
      ],
      "name": "ownerOf",
      "outputs": [
        {
          "internalType": "address",
          "name": "",
          "type": "address"
        }
      ],
      "stateMutability": "view",
      "type": "function"
    },
    {
      "inputs": [],
      "name": "renounceOwnership",
      "outputs": [],
      "stateMutability": "nonpayable",
      "type": "function"
    },
    {
      "inputs": [
        {
          "internalType": "address",
          "name": "to",
          "type": "address"
        }
      ],
      "name": "safeMint",
      "outputs": [],
      "stateMutability": "nonpayable",
      "type": "function"
    },
    {
      "inputs": [
        {
          "internalType": "address[]",
          "name": "to",
          "type": "address[]"
        }
      ],
      "name": "safeMintBatch",
      "outputs": [],
      "stateMutability": "nonpayable",
      "type": "function"
    },
    {
      "inputs": [
        {
          "internalType": "address",
          "name": "from",
          "type": "address"
        },
        {
          "internalType": "address",
          "name": "to",
          "type": "address"
        },
        {
          "internalType": "uint256",
          "name": "tokenId",
          "type": "uint256"
        }
      ],
      "name": "safeTransferFrom",
      "outputs": [],
      "stateMutability": "nonpayable",
      "type": "function"
    },
    {
      "inputs": [
        {
          "internalType": "address",
          "name": "from",
          "type": "address"
        },
        {
          "internalType": "address",
          "name": "to",
          "type": "address"
        },
        {
          "internalType": "uint256",
          "name": "tokenId",
          "type": "uint256"
        },
        {
          "internalType": "bytes",
          "name": "data",
          "type": "bytes"
        }
      ],
      "name": "safeTransferFrom",
      "outputs": [],
      "stateMutability": "nonpayable",
      "type": "function"
    },
    {
      "inputs": [
        {
          "internalType": "address",
          "name": "operator",
          "type": "address"
        },
        {
          "internalType": "bool",
          "name": "approved",
          "type": "bool"
        }
      ],
      "name": "setApprovalForAll",
      "outputs": [],
      "stateMutability": "nonpayable",
      "type": "function"
    },
    {
      "inputs": [
        {
          "internalType": "string",
          "name": "baseURI",
          "type": "string"
        },
        {
          "internalType": "string",
          "name": "image",
          "type": "string"
        },
        {
          "internalType": "string",
          "name": "description",
          "type": "string"
        }
      ],
      "name": "setBaseURI",
      "outputs": [],
      "stateMutability": "nonpayable",
      "type": "function"
    },
    {
      "inputs": [
        {
          "internalType": "uint256",
          "name": "_tokenId",
          "type": "uint256"
        },
        {
          "internalType": "enum IERC5484.BurnAuth",
          "name": "_burnAuth",
          "type": "uint8"
        }
      ],
      "name": "setBurnAuth",
      "outputs": [],
      "stateMutability": "nonpayable",
      "type": "function"
    },
    {
      "inputs": [
        {
          "internalType": "uint256",
          "name": "_maxSupply",
          "type": "uint256"
        }
      ],
      "name": "setMaxSupply",
      "outputs": [],
      "stateMutability": "nonpayable",
      "type": "function"
    },
    {
      "inputs": [
        {
          "internalType": "bytes4",
          "name": "interfaceId",
          "type": "bytes4"
        }
      ],
      "name": "supportsInterface",
      "outputs": [
        {
          "internalType": "bool",
          "name": "",
          "type": "bool"
        }
      ],
      "stateMutability": "view",
      "type": "function"
    },
    {
      "inputs": [],
      "name": "symbol",
      "outputs": [
        {
          "internalType": "string",
          "name": "",
          "type": "string"
        }
      ],
      "stateMutability": "view",
      "type": "function"
    },
    {
      "inputs": [
        {
          "internalType": "uint256",
          "name": "tokenId",
          "type": "uint256"
        }
      ],
      "name": "tokenURI",
      "outputs": [
        {
          "internalType": "string",
          "name": "",
          "type": "string"
        }
      ],
      "stateMutability": "view",
      "type": "function"
    },
    {
      "inputs": [
        {
          "internalType": "address",
          "name": "from",
          "type": "address"
        },
        {
          "internalType": "address",
          "name": "to",
          "type": "address"
        },
        {
          "internalType": "uint256",
          "name": "tokenId",
          "type": "uint256"
        }
      ],
      "name": "transferFrom",
      "outputs": [],
      "stateMutability": "nonpayable",
      "type": "function"
    },
    {
      "inputs": [
        {
          "internalType": "address",
          "name": "newOwner",
          "type": "address"
        }
      ],
      "name": "transferOwnership",
      "outputs": [],
      "stateMutability": "nonpayable",
      "type": "function"
    },
    {
      "inputs": [
        {
          "internalType": "uint256",
          "name": "tokenId",
          "type": "uint256"
        }
      ],
      "name": "unlock",
      "outputs": [],
      "stateMutability": "nonpayable",
      "type": "function"
    }
  ],
  "bytecode": "0x60806040523480156200001157600080fd5b5060405162003e8238038062003e8283398181016040528101906200003791906200045a565b80868681600090816200004b919062000794565b5080600190816200005d919062000794565b505050600073ffffffffffffffffffffffffffffffffffffffff168173ffffffffffffffffffffffffffffffffffffffff1603620000d55760006040517f1e4fbdf7000000000000000000000000000000000000000000000000000000008152600401620000cc91906200088c565b60405180910390fd5b620000e6816200013960201b60201c565b508360079081620000f8919062000794565b508260088190555081600b60006101000a81548160ff02191690836003811115620001285762000127620008a9565b5b0217905550505050505050620008d8565b6000600660009054906101000a900473ffffffffffffffffffffffffffffffffffffffff16905081600660006101000a81548173ffffffffffffffffffffffffffffffffffffffff021916908373ffffffffffffffffffffffffffffffffffffffff1602179055508173ffffffffffffffffffffffffffffffffffffffff168173ffffffffffffffffffffffffffffffffffffffff167f8be0079c531659141344cd1fd0a4f28419497f9722a3daafe3b4186f6b6457e060405160405180910390a35050565b6000604051905090565b600080fd5b600080fd5b600080fd5b600080fd5b6000601f19601f8301169050919050565b7f4e487b7100000000000000000000000000000000000000000000000000000000600052604160045260246000fd5b62000268826200021d565b810181811067ffffffffffffffff821117156200028a57620002896200022e565b5b80604052505050565b60006200029f620001ff565b9050620002ad82826200025d565b919050565b600067ffffffffffffffff821115620002d057620002cf6200022e565b5b620002db826200021d565b9050602081019050919050565b60005b8381101562000308578082015181840152602081019050620002eb565b60008484015250505050565b60006200032b6200032584620002b2565b62000293565b9050828152602081018484840111156200034a576200034962000218565b5b62000357848285620002e8565b509392505050565b600082601f83011262000377576200037662000213565b5b81516200038984826020860162000314565b91505092915050565b6000819050919050565b620003a78162000392565b8114620003b357600080fd5b50565b600081519050620003c7816200039c565b92915050565b60048110620003db57600080fd5b50565b600081519050620003ef81620003cd565b92915050565b600073ffffffffffffffffffffffffffffffffffffffff82169050919050565b60006200042282620003f5565b9050919050565b620004348162000415565b81146200044057600080fd5b50565b600081519050620004548162000429565b92915050565b60008060008060008060c087890312156200047a576200047962000209565b5b600087015167ffffffffffffffff8111156200049b576200049a6200020e565b5b620004a989828a016200035f565b965050602087015167ffffffffffffffff811115620004cd57620004cc6200020e565b5b620004db89828a016200035f565b955050604087015167ffffffffffffffff811115620004ff57620004fe6200020e565b5b6200050d89828a016200035f565b94505060606200052089828a01620003b6565b93505060806200053389828a01620003de565b92505060a06200054689828a0162000443565b9150509295509295509295565b600081519050919050565b7f4e487b7100000000000000000000000000000000000000000000000000000000600052602260045260246000fd5b60006002820490506001821680620005a657607f821691505b602082108103620005bc57620005bb6200055e565b5b50919050565b60008190508160005260206000209050919050565b60006020601f8301049050919050565b600082821b905092915050565b600060088302620006267fffffffffffffffffffffffffffffffffffffffffffffffffffffffffffffffff82620005e7565b620006328683620005e7565b95508019841693508086168417925050509392505050565b6000819050919050565b6000620006756200066f620006698462000392565b6200064a565b62000392565b9050919050565b6000819050919050565b620006918362000654565b620006a9620006a0826200067c565b848454620005f4565b825550505050565b600090565b620006c0620006b1565b620006cd81848462000686565b505050565b5b81811015620006f557620006e9600082620006b6565b600181019050620006d3565b5050565b601f82111562000744576200070e81620005c2565b6200071984620005d7565b8101602085101562000729578190505b620007416200073885620005d7565b830182620006d2565b50505b505050565b600082821c905092915050565b6000620007696000198460080262000749565b1980831691505092915050565b600062000784838362000756565b9150826002028217905092915050565b6200079f8262000553565b67ffffffffffffffff811115620007bb57620007ba6200022e565b5b620007c782546200058d565b620007d4828285620006f9565b600060209050601f8311600181146200080c5760008415620007f7578287015190505b62000803858262000776565b86555062000873565b601f1984166200081c86620005c2565b60005b8281101562000846578489015182556001820191506020850194506020810190506200081f565b8683101562000866578489015162000862601f89168262000756565b8355505b6001600288020188555050505b505050505050565b620008868162000415565b82525050565b6000602082019050620008a360008301846200087b565b92915050565b7f4e487b7100000000000000000000000000000000000000000000000000000000600052602160045260246000fd5b61359a80620008e86000396000f3fe608060405234801561001057600080fd5b50600436106101a95760003560e01c80636f8b44b0116100f9578063b88d4fde11610097578063dd46706411610071578063dd467064146104b4578063e985e9c5146104d0578063ef4595f014610500578063f2fde38b1461051c576101a9565b8063b88d4fde1461044a578063c87b56dd14610466578063d5abeb0114610496576101a9565b80638da5cb5b116100d35780638da5cb5b146103c257806395d89b41146103e0578063a22cb465146103fe578063b45a3c0e1461041a576101a9565b80636f8b44b01461036c57806370a0823114610388578063715018a6146103b8576101a9565b806323b872dd1161016657806342842e0e1161014057806342842e0e146102e857806342966c68146103045780636198e339146103205780636352211e1461033c576101a9565b806323b872dd1461029457806326552278146102b057806340d097c3146102cc576101a9565b806301ffc9a7146101ae5780630489b56f146101de57806306fdde031461020e578063081812fc1461022c578063095ea7b31461025c5780631c0860d114610278575b600080fd5b6101c860048036038101906101c39190612407565b610538565b6040516101d5919061244f565b60405180910390f35b6101f860048036038101906101f391906124a0565b61061a565b6040516102059190612544565b60405180910390f35b610216610644565b60405161022391906125ef565b60405180910390f35b610246600480360381019061024191906124a0565b6106d6565b6040516102539190612652565b60405180910390f35b61027660048036038101906102719190612699565b6106f2565b005b610292600480360381019061028d919061280e565b610708565b005b6102ae60048036038101906102a991906128b5565b610760565b005b6102ca60048036038101906102c591906129d0565b610862565b005b6102e660048036038101906102e19190612a19565b6108b0565b005b61030260048036038101906102fd91906128b5565b610a58565b005b61031e600480360381019061031991906124a0565b610a78565b005b61033a600480360381019061033591906124a0565b610d35565b005b610356600480360381019061035191906124a0565b610da3565b6040516103639190612652565b60405180910390f35b610386600480360381019061038191906124a0565b610db5565b005b6103a2600480360381019061039d9190612a19565b610dfe565b6040516103af9190612a55565b60405180910390f35b6103c0610eb8565b005b6103ca610ecc565b6040516103d79190612652565b60405180910390f35b6103e8610ef6565b6040516103f591906125ef565b60405180910390f35b61041860048036038101906104139190612a9c565b610f88565b005b610434600480360381019061042f91906124a0565b610f9e565b604051610441919061244f565b60405180910390f35b610464600480360381019061045f9190612b7d565b610fc8565b005b610480600480360381019061047b91906124a0565b610fe5565b60405161048d91906125ef565b60405180910390f35b61049e61104e565b6040516104ab9190612a55565b60405180910390f35b6104ce60048036038101906104c991906124a0565b611054565b005b6104ea60048036038101906104e59190612c00565b6110c2565b6040516104f7919061244f565b60405180910390f35b61051a60048036038101906105159190612c65565b611156565b005b61053660048036038101906105319190612a19565b6111d6565b005b60007fb45a3c0e000000000000000000000000000000000000000000000000000000007bffffffffffffffffffffffffffffffffffffffffffffffffffffffff1916827bffffffffffffffffffffffffffffffffffffffffffffffffffffffff1916148061060357507f0489b56f000000000000000000000000000000000000000000000000000000007bffffffffffffffffffffffffffffffffffffffffffffffffffffffff1916827bffffffffffffffffffffffffffffffffffffffffffffffffffffffff1916145b8061061357506106128261125c565b5b9050919050565b6000600c600083815260200190815260200160002060009054906101000a900460ff169050919050565b60606000805461065390612cd4565b80601f016020809104026020016040519081016040528092919081815260200182805461067f90612cd4565b80156106cc5780601f106106a1576101008083540402835291602001916106cc565b820191906000526020600020905b8154815290600101906020018083116106af57829003601f168201915b5050505050905090565b60006106e18261133e565b506106eb826113c6565b9050919050565b61070482826106ff611403565b61140b565b5050565b61071061141d565b826007908161071f9190612eb1565b507f583a827e8e57c8f220e0813e99fca31a490a33fb86837eb3c10aa594e413e8fb83838360405161075393929190612f83565b60405180910390a1505050565b600073ffffffffffffffffffffffffffffffffffffffff168273ffffffffffffffffffffffffffffffffffffffff16036107d25760006040517f64a0ae920000000000000000000000000000000000000000000000000000000081526004016107c99190612652565b60405180910390fd5b60006107e683836107e1611403565b6114a4565b90508373ffffffffffffffffffffffffffffffffffffffff168173ffffffffffffffffffffffffffffffffffffffff161461085c578382826040517f64283d7b00000000000000000000000000000000000000000000000000000000815260040161085393929190612fcf565b60405180910390fd5b50505050565b61086a61141d565b60005b81518110156108ac5761089982828151811061088c5761088b613006565b5b60200260200101516108b0565b80806108a490613064565b91505061086d565b5050565b6108b861141d565b60006108c382610dfe565b14610903576040517f08c379a00000000000000000000000000000000000000000000000000000000081526004016108fa906130f8565b60405180910390fd5b600060085414806109175750600854600954105b610956576040517f08c379a000000000000000000000000000000000000000000000000000000000815260040161094d90613164565b60405180910390fd5b60006009600081548092919061096b90613064565b919050559050600b60009054906101000a900460ff16600c600083815260200190815260200160002060006101000a81548160ff021916908360038111156109b6576109b56124cd565b5b02179055506109c58282611538565b6109ce81611054565b808273ffffffffffffffffffffffffffffffffffffffff163373ffffffffffffffffffffffffffffffffffffffff167f135ffb3383e06280e062ac5095bbf8faa98517161e596a2536bd98a9a8b64a88600c600086815260200190815260200160002060009054906101000a900460ff16604051610a4c9190612544565b60405180910390a45050565b610a7383838360405180602001604052806000815250610fc8565b505050565b6000600c600083815260200190815260200160002060009054906101000a900460ff16905060006003811115610ab157610ab06124cd565b5b816003811115610ac457610ac36124cd565b5b03610b3f573373ffffffffffffffffffffffffffffffffffffffff16610ae8610ecc565b73ffffffffffffffffffffffffffffffffffffffff1614610b3e576040517f08c379a0000000000000000000000000000000000000000000000000000000008152600401610b35906131d0565b60405180910390fd5b5b60016003811115610b5357610b526124cd565b5b816003811115610b6657610b656124cd565b5b03610be2573373ffffffffffffffffffffffffffffffffffffffff16610b8b83610da3565b73ffffffffffffffffffffffffffffffffffffffff1614610be1576040517f08c379a0000000000000000000000000000000000000000000000000000000008152600401610bd89061323c565b60405180910390fd5b5b60026003811115610bf657610bf56124cd565b5b816003811115610c0957610c086124cd565b5b03610cc2573373ffffffffffffffffffffffffffffffffffffffff16610c2d610ecc565b73ffffffffffffffffffffffffffffffffffffffff161480610c8257503373ffffffffffffffffffffffffffffffffffffffff16610c6a83610da3565b73ffffffffffffffffffffffffffffffffffffffff16145b610cc1576040517f08c379a0000000000000000000000000000000000000000000000000000000008152600401610cb8906132a8565b60405180910390fd5b5b600380811115610cd557610cd46124cd565b5b816003811115610ce857610ce76124cd565b5b03610d28576040517f08c379a0000000000000000000000000000000000000000000000000000000008152600401610d1f90613314565b60405180910390fd5b610d3182611556565b5050565b610d3d61141d565b6000600a600083815260200190815260200160002060006101000a81548160ff0219169083151502179055507ff27b6ce5b2f5e68ddb2fd95a8a909d4ecf1daaac270935fff052feacb24f184281604051610d989190612a55565b60405180910390a150565b6000610dae8261133e565b9050919050565b610dbd61141d565b806008819055507facc639f1ff310faf48650d02a82bd24c924e45a5050fc931245096ac57c309d981604051610df39190612a55565b60405180910390a150565b60008073ffffffffffffffffffffffffffffffffffffffff168273ffffffffffffffffffffffffffffffffffffffff1603610e715760006040517f89c62b64000000000000000000000000000000000000000000000000000000008152600401610e689190612652565b60405180910390fd5b600360008373ffffffffffffffffffffffffffffffffffffffff1673ffffffffffffffffffffffffffffffffffffffff168152602001908152602001600020549050919050565b610ec061141d565b610eca60006115dc565b565b6000600660009054906101000a900473ffffffffffffffffffffffffffffffffffffffff16905090565b606060018054610f0590612cd4565b80601f0160208091040260200160405190810160405280929190818152602001828054610f3190612cd4565b8015610f7e5780601f10610f5357610100808354040283529160200191610f7e565b820191906000526020600020905b815481529060010190602001808311610f6157829003601f168201915b5050505050905090565b610f9a610f93611403565b83836116a2565b5050565b6000600a600083815260200190815260200160002060009054906101000a900460ff169050919050565b610fd3848484610760565b610fdf84848484611811565b50505050565b6060610ff08261133e565b506000610ffb6119c8565b9050600081511161101b5760405180602001604052806000815250611046565b8061102584611a5a565b604051602001611036929190613370565b6040516020818303038152906040525b915050919050565b60085481565b61105c61141d565b6001600a600083815260200190815260200160002060006101000a81548160ff0219169083151502179055507f032bc66be43dbccb7487781d168eb7bda224628a3b2c3388bdf69b532a3a1611816040516110b79190612a55565b60405180910390a150565b6000600560008473ffffffffffffffffffffffffffffffffffffffff1673ffffffffffffffffffffffffffffffffffffffff16815260200190815260200160002060008373ffffffffffffffffffffffffffffffffffffffff1673ffffffffffffffffffffffffffffffffffffffff16815260200190815260200160002060009054906101000a900460ff16905092915050565b61115e61141d565b80600c600084815260200190815260200160002060006101000a81548160ff02191690836003811115611194576111936124cd565b5b02179055507f8ecc1f4406cebdabc0a950a3467ca062dbbe5865442a2612748acf41ae2c984882826040516111ca929190613394565b60405180910390a15050565b6111de61141d565b600073ffffffffffffffffffffffffffffffffffffffff168173ffffffffffffffffffffffffffffffffffffffff16036112505760006040517f1e4fbdf70000000000000000000000000000000000000000000000000000000081526004016112479190612652565b60405180910390fd5b611259816115dc565b50565b60007f80ac58cd000000000000000000000000000000000000000000000000000000007bffffffffffffffffffffffffffffffffffffffffffffffffffffffff1916827bffffffffffffffffffffffffffffffffffffffffffffffffffffffff1916148061132757507f5b5e139f000000000000000000000000000000000000000000000000000000007bffffffffffffffffffffffffffffffffffffffffffffffffffffffff1916827bffffffffffffffffffffffffffffffffffffffffffffffffffffffff1916145b80611337575061133682611b28565b5b9050919050565b60008061134a83611b92565b9050600073ffffffffffffffffffffffffffffffffffffffff168173ffffffffffffffffffffffffffffffffffffffff16036113bd57826040517f7e2732890000000000000000000000000000000000000000000000000000000081526004016113b49190612a55565b60405180910390fd5b80915050919050565b60006004600083815260200190815260200160002060009054906101000a900473ffffffffffffffffffffffffffffffffffffffff169050919050565b600033905090565b6114188383836001611bcf565b505050565b611425611403565b73ffffffffffffffffffffffffffffffffffffffff16611443610ecc565b73ffffffffffffffffffffffffffffffffffffffff16146114a257611466611403565b6040517f118cdaa70000000000000000000000000000000000000000000000000000000081526004016114999190612652565b60405180910390fd5b565b60006114af83610f9e565b1561152457600073ffffffffffffffffffffffffffffffffffffffff168473ffffffffffffffffffffffffffffffffffffffff1614611523576040517f08c379a000000000000000000000000000000000000000000000000000000000815260040161151a90613409565b60405180910390fd5b5b61152f848484611d94565b90509392505050565b611552828260405180602001604052806000815250611fae565b5050565b600061156560008360006114a4565b9050600073ffffffffffffffffffffffffffffffffffffffff168173ffffffffffffffffffffffffffffffffffffffff16036115d857816040517f7e2732890000000000000000000000000000000000000000000000000000000081526004016115cf9190612a55565b60405180910390fd5b5050565b6000600660009054906101000a900473ffffffffffffffffffffffffffffffffffffffff16905081600660006101000a81548173ffffffffffffffffffffffffffffffffffffffff021916908373ffffffffffffffffffffffffffffffffffffffff1602179055508173ffffffffffffffffffffffffffffffffffffffff168173ffffffffffffffffffffffffffffffffffffffff167f8be0079c531659141344cd1fd0a4f28419497f9722a3daafe3b4186f6b6457e060405160405180910390a35050565b600073ffffffffffffffffffffffffffffffffffffffff168273ffffffffffffffffffffffffffffffffffffffff160361171357816040517f5b08ba1800000000000000000000000000000000000000000000000000000000815260040161170a9190612652565b60405180910390fd5b80600560008573ffffffffffffffffffffffffffffffffffffffff1673ffffffffffffffffffffffffffffffffffffffff16815260200190815260200160002060008473ffffffffffffffffffffffffffffffffffffffff1673ffffffffffffffffffffffffffffffffffffffff16815260200190815260200160002060006101000a81548160ff0219169083151502179055508173ffffffffffffffffffffffffffffffffffffffff168373ffffffffffffffffffffffffffffffffffffffff167f17307eab39ab6107e8899845ad3d59bd9653f200f220920489ca2b5937696c3183604051611804919061244f565b60405180910390a3505050565b60008373ffffffffffffffffffffffffffffffffffffffff163b11156119c2578273ffffffffffffffffffffffffffffffffffffffff1663150b7a02611855611403565b8685856040518563ffffffff1660e01b8152600401611877949392919061347e565b6020604051808303816000875af19250505080156118b357506040513d601f19601f820116820180604052508101906118b091906134df565b60015b611937573d80600081146118e3576040519150601f19603f3d011682016040523d82523d6000602084013e6118e8565b606091505b50600081510361192f57836040517f64a0ae920000000000000000000000000000000000000000000000000000000081526004016119269190612652565b60405180910390fd5b805181602001fd5b63150b7a0260e01b7bffffffffffffffffffffffffffffffffffffffffffffffffffffffff1916817bffffffffffffffffffffffffffffffffffffffffffffffffffffffff1916146119c057836040517f64a0ae920000000000000000000000000000000000000000000000000000000081526004016119b79190612652565b60405180910390fd5b505b50505050565b6060600780546119d790612cd4565b80601f0160208091040260200160405190810160405280929190818152602001828054611a0390612cd4565b8015611a505780601f10611a2557610100808354040283529160200191611a50565b820191906000526020600020905b815481529060010190602001808311611a3357829003601f168201915b5050505050905090565b606060006001611a6984611fca565b01905060008167ffffffffffffffff811115611a8857611a876126e3565b5b6040519080825280601f01601f191660200182016040528015611aba5781602001600182028036833780820191505090505b509050600082602001820190505b600115611b1d578080600190039150507f3031323334353637383961626364656600000000000000000000000000000000600a86061a8153600a8581611b1157611b1061350c565b5b04945060008503611ac8575b819350505050919050565b60007f01ffc9a7000000000000000000000000000000000000000000000000000000007bffffffffffffffffffffffffffffffffffffffffffffffffffffffff1916827bffffffffffffffffffffffffffffffffffffffffffffffffffffffff1916149050919050565b60006002600083815260200190815260200160002060009054906101000a900473ffffffffffffffffffffffffffffffffffffffff169050919050565b8080611c085750600073ffffffffffffffffffffffffffffffffffffffff168273ffffffffffffffffffffffffffffffffffffffff1614155b15611d3c576000611c188461133e565b9050600073ffffffffffffffffffffffffffffffffffffffff168373ffffffffffffffffffffffffffffffffffffffff1614158015611c8357508273ffffffffffffffffffffffffffffffffffffffff168173ffffffffffffffffffffffffffffffffffffffff1614155b8015611c965750611c9481846110c2565b155b15611cd857826040517fa9fbf51f000000000000000000000000000000000000000000000000000000008152600401611ccf9190612652565b60405180910390fd5b8115611d3a57838573ffffffffffffffffffffffffffffffffffffffff168273ffffffffffffffffffffffffffffffffffffffff167f8c5be1e5ebec7d5bd14f71427d1e84f3dd0314c0f7b2291e5b200ac8c7c3b92560405160405180910390a45b505b836004600085815260200190815260200160002060006101000a81548173ffffffffffffffffffffffffffffffffffffffff021916908373ffffffffffffffffffffffffffffffffffffffff16021790555050505050565b600080611da084611b92565b9050600073ffffffffffffffffffffffffffffffffffffffff168373ffffffffffffffffffffffffffffffffffffffff1614611de257611de181848661211d565b5b600073ffffffffffffffffffffffffffffffffffffffff168173ffffffffffffffffffffffffffffffffffffffff1614611e7357611e24600085600080611bcf565b6001600360008373ffffffffffffffffffffffffffffffffffffffff1673ffffffffffffffffffffffffffffffffffffffff168152602001908152602001600020600082825403925050819055505b600073ffffffffffffffffffffffffffffffffffffffff168573ffffffffffffffffffffffffffffffffffffffff1614611ef6576001600360008773ffffffffffffffffffffffffffffffffffffffff1673ffffffffffffffffffffffffffffffffffffffff168152602001908152602001600020600082825401925050819055505b846002600086815260200190815260200160002060006101000a81548173ffffffffffffffffffffffffffffffffffffffff021916908373ffffffffffffffffffffffffffffffffffffffff160217905550838573ffffffffffffffffffffffffffffffffffffffff168273ffffffffffffffffffffffffffffffffffffffff167fddf252ad1be2c89b69c2b068fc378daa952ba7f163c4a11628f55a4df523b3ef60405160405180910390a4809150509392505050565b611fb883836121e1565b611fc56000848484611811565b505050565b600080600090507a184f03e93ff9f4daa797ed6e38ed64bf6a1f0100000000000000008310612028577a184f03e93ff9f4daa797ed6e38ed64bf6a1f010000000000000000838161201e5761201d61350c565b5b0492506040810190505b6d04ee2d6d415b85acef81000000008310612065576d04ee2d6d415b85acef8100000000838161205b5761205a61350c565b5b0492506020810190505b662386f26fc10000831061209457662386f26fc10000838161208a5761208961350c565b5b0492506010810190505b6305f5e10083106120bd576305f5e10083816120b3576120b261350c565b5b0492506008810190505b61271083106120e25761271083816120d8576120d761350c565b5b0492506004810190505b6064831061210557606483816120fb576120fa61350c565b5b0492506002810190505b600a8310612114576001810190505b80915050919050565b6121288383836122da565b6121dc57600073ffffffffffffffffffffffffffffffffffffffff168373ffffffffffffffffffffffffffffffffffffffff160361219d57806040517f7e2732890000000000000000000000000000000000000000000000000000000081526004016121949190612a55565b60405180910390fd5b81816040517f177e802f0000000000000000000000000000000000000000000000000000000081526004016121d392919061353b565b60405180910390fd5b505050565b600073ffffffffffffffffffffffffffffffffffffffff168273ffffffffffffffffffffffffffffffffffffffff16036122535760006040517f64a0ae9200000000000000000000000000000000000000000000000000000000815260040161224a9190612652565b60405180910390fd5b6000612261838360006114a4565b9050600073ffffffffffffffffffffffffffffffffffffffff168173ffffffffffffffffffffffffffffffffffffffff16146122d55760006040517f73c6ac6e0000000000000000000000000000000000000000000000000000000081526004016122cc9190612652565b60405180910390fd5b505050565b60008073ffffffffffffffffffffffffffffffffffffffff168373ffffffffffffffffffffffffffffffffffffffff161415801561239257508273ffffffffffffffffffffffffffffffffffffffff168473ffffffffffffffffffffffffffffffffffffffff161480612353575061235284846110c2565b5b8061239157508273ffffffffffffffffffffffffffffffffffffffff16612379836113c6565b73ffffffffffffffffffffffffffffffffffffffff16145b5b90509392505050565b6000604051905090565b600080fd5b600080fd5b60007fffffffff0000000000000000000000000000000000000000000000000000000082169050919050565b6123e4816123af565b81146123ef57600080fd5b50565b600081359050612401816123db565b92915050565b60006020828403121561241d5761241c6123a5565b5b600061242b848285016123f2565b91505092915050565b60008115159050919050565b61244981612434565b82525050565b60006020820190506124646000830184612440565b92915050565b6000819050919050565b61247d8161246a565b811461248857600080fd5b50565b60008135905061249a81612474565b92915050565b6000602082840312156124b6576124b56123a5565b5b60006124c48482850161248b565b91505092915050565b7f4e487b7100000000000000000000000000000000000000000000000000000000600052602160045260246000fd5b6004811061250d5761250c6124cd565b5b50565b600081905061251e826124fc565b919050565b600061252e82612510565b9050919050565b61253e81612523565b82525050565b60006020820190506125596000830184612535565b92915050565b600081519050919050565b600082825260208201905092915050565b60005b8381101561259957808201518184015260208101905061257e565b60008484015250505050565b6000601f19601f8301169050919050565b60006125c18261255f565b6125cb818561256a565b93506125db81856020860161257b565b6125e4816125a5565b840191505092915050565b6000602082019050818103600083015261260981846125b6565b905092915050565b600073ffffffffffffffffffffffffffffffffffffffff82169050919050565b600061263c82612611565b9050919050565b61264c81612631565b82525050565b60006020820190506126676000830184612643565b92915050565b61267681612631565b811461268157600080fd5b50565b6000813590506126938161266d565b92915050565b600080604083850312156126b0576126af6123a5565b5b60006126be85828601612684565b92505060206126cf8582860161248b565b9150509250929050565b600080fd5b600080fd5b7f4e487b7100000000000000000000000000000000000000000000000000000000600052604160045260246000fd5b61271b826125a5565b810181811067ffffffffffffffff8211171561273a576127396126e3565b5b80604052505050565b600061274d61239b565b90506127598282612712565b919050565b600067ffffffffffffffff821115612779576127786126e3565b5b612782826125a5565b9050602081019050919050565b82818337600083830152505050565b60006127b16127ac8461275e565b612743565b9050828152602081018484840111156127cd576127cc6126de565b5b6127d884828561278f565b509392505050565b600082601f8301126127f5576127f46126d9565b5b813561280584826020860161279e565b91505092915050565b600080600060608486031215612827576128266123a5565b5b600084013567ffffffffffffffff811115612845576128446123aa565b5b612851868287016127e0565b935050602084013567ffffffffffffffff811115612872576128716123aa565b5b61287e868287016127e0565b925050604084013567ffffffffffffffff81111561289f5761289e6123aa565b5b6128ab868287016127e0565b9150509250925092565b6000806000606084860312156128ce576128cd6123a5565b5b60006128dc86828701612684565b93505060206128ed86828701612684565b92505060406128fe8682870161248b565b9150509250925092565b600067ffffffffffffffff821115612923576129226126e3565b5b602082029050602081019050919050565b600080fd5b600061294c61294784612908565b612743565b9050808382526020820190506020840283018581111561296f5761296e612934565b5b835b8181101561299857806129848882612684565b845260208401935050602081019050612971565b5050509392505050565b600082601f8301126129b7576129b66126d9565b5b81356129c7848260208601612939565b91505092915050565b6000602082840312156129e6576129e56123a5565b5b600082013567ffffffffffffffff811115612a0457612a036123aa565b5b612a10848285016129a2565b91505092915050565b600060208284031215612a2f57612a2e6123a5565b5b6000612a3d84828501612684565b91505092915050565b612a4f8161246a565b82525050565b6000602082019050612a6a6000830184612a46565b92915050565b612a7981612434565b8114612a8457600080fd5b50565b600081359050612a9681612a70565b92915050565b60008060408385031215612ab357612ab26123a5565b5b6000612ac185828601612684565b9250506020612ad285828601612a87565b9150509250929050565b600067ffffffffffffffff821115612af757612af66126e3565b5b612b00826125a5565b9050602081019050919050565b6000612b20612b1b84612adc565b612743565b905082815260208101848484011115612b3c57612b3b6126de565b5b612b4784828561278f565b509392505050565b600082601f830112612b6457612b636126d9565b5b8135612b74848260208601612b0d565b91505092915050565b60008060008060808587031215612b9757612b966123a5565b5b6000612ba587828801612684565b9450506020612bb687828801612684565b9350506040612bc78782880161248b565b925050606085013567ffffffffffffffff811115612be857612be76123aa565b5b612bf487828801612b4f565b91505092959194509250565b60008060408385031215612c1757612c166123a5565b5b6000612c2585828601612684565b9250506020612c3685828601612684565b9150509250929050565b60048110612c4d57600080fd5b50565b600081359050612c5f81612c40565b92915050565b60008060408385031215612c7c57612c7b6123a5565b5b6000612c8a8582860161248b565b9250506020612c9b85828601612c50565b9150509250929050565b7f4e487b7100000000000000000000000000000000000000000000000000000000600052602260045260246000fd5b60006002820490506001821680612cec57607f821691505b602082108103612cff57612cfe612ca5565b5b50919050565b60008190508160005260206000209050919050565b60006020601f8301049050919050565b600082821b905092915050565b600060088302612d677fffffffffffffffffffffffffffffffffffffffffffffffffffffffffffffffff82612d2a565b612d718683612d2a565b95508019841693508086168417925050509392505050565b6000819050919050565b6000612dae612da9612da48461246a565b612d89565b61246a565b9050919050565b6000819050919050565b612dc883612d93565b612ddc612dd482612db5565b848454612d37565b825550505050565b600090565b612df1612de4565b612dfc818484612dbf565b505050565b5b81811015612e2057612e15600082612de9565b600181019050612e02565b5050565b601f821115612e6557612e3681612d05565b612e3f84612d1a565b81016020851015612e4e578190505b612e62612e5a85612d1a565b830182612e01565b50505b505050565b600082821c905092915050565b6000612e8860001984600802612e6a565b1980831691505092915050565b6000612ea18383612e77565b9150826002028217905092915050565b612eba8261255f565b67ffffffffffffffff811115612ed357612ed26126e3565b5b612edd8254612cd4565b612ee8828285612e24565b600060209050601f831160018114612f1b5760008415612f09578287015190505b612f138582612e95565b865550612f7b565b601f198416612f2986612d05565b60005b82811015612f5157848901518255600182019150602085019450602081019050612f2c565b86831015612f6e5784890151612f6a601f891682612e77565b8355505b6001600288020188555050505b505050505050565b60006060820190508181036000830152612f9d81866125b6565b90508181036020830152612fb181856125b6565b90508181036040830152612fc581846125b6565b9050949350505050565b6000606082019050612fe46000830186612643565b612ff16020830185612a46565b612ffe6040830184612643565b949350505050565b7f4e487b7100000000000000000000000000000000000000000000000000000000600052603260045260246000fd5b7f4e487b7100000000000000000000000000000000000000000000000000000000600052601160045260246000fd5b600061306f8261246a565b91507fffffffffffffffffffffffffffffffffffffffffffffffffffffffffffffffff82036130a1576130a0613035565b5b600182019050919050565b7f596f752063616e206d696e74206f6e6c79206f6e6520746f6b656e0000000000600082015250565b60006130e2601b8361256a565b91506130ed826130ac565b602082019050919050565b60006020820190508181036000830152613111816130d5565b9050919050565b7f4d617820737570706c7920726561636865640000000000000000000000000000600082015250565b600061314e60128361256a565b915061315982613118565b602082019050919050565b6000602082019050818103600083015261317d81613141565b9050919050565b7f4f6e6c79206973737565722063616e206275726e000000000000000000000000600082015250565b60006131ba60148361256a565b91506131c582613184565b602082019050919050565b600060208201905081810360008301526131e9816131ad565b9050919050565b7f4f6e6c79206f776e65722063616e206275726e00000000000000000000000000600082015250565b600061322660138361256a565b9150613231826131f0565b602082019050919050565b6000602082019050818103600083015261325581613219565b9050919050565b7f4f6e6c7920697373756572206f72206f776e65722063616e206275726e000000600082015250565b6000613292601d8361256a565b915061329d8261325c565b602082019050919050565b600060208201905081810360008301526132c181613285565b9050919050565b7f4275726e696e67206e6f7420616c6c6f77656400000000000000000000000000600082015250565b60006132fe60138361256a565b9150613309826132c8565b602082019050919050565b6000602082019050818103600083015261332d816132f1565b9050919050565b600081905092915050565b600061334a8261255f565b6133548185613334565b935061336481856020860161257b565b80840191505092915050565b600061337c828561333f565b9150613388828461333f565b91508190509392505050565b60006040820190506133a96000830185612a46565b6133b66020830184612535565b9392505050565b7f546f6b656e206973206c6f636b65640000000000000000000000000000000000600082015250565b60006133f3600f8361256a565b91506133fe826133bd565b602082019050919050565b60006020820190508181036000830152613422816133e6565b9050919050565b600081519050919050565b600082825260208201905092915050565b600061345082613429565b61345a8185613434565b935061346a81856020860161257b565b613473816125a5565b840191505092915050565b60006080820190506134936000830187612643565b6134a06020830186612643565b6134ad6040830185612a46565b81810360608301526134bf8184613445565b905095945050505050565b6000815190506134d9816123db565b92915050565b6000602082840312156134f5576134f46123a5565b5b6000613503848285016134ca565b91505092915050565b7f4e487b7100000000000000000000000000000000000000000000000000000000600052601260045260246000fd5b60006040820190506135506000830185612643565b61355d6020830184612a46565b939250505056fea2646970667358221220c5760aa172d7594958dcfca377bca1bf54bdf0bc6f12ab4be8833a41d6b12efa64736f6c63430008140033",
  "linkReferences": {},
  "deployedLinkReferences": {}
}