{
  "_format": "hh-sol-artifact-1",
  "contractName": "SBTFactory",
  "sourceName": "contracts/SBTFactory.sol",
  "abi": [
    {
      "inputs": [],
      "stateMutability": "nonpayable",
      "type": "constructor"
    },
    {
      "inputs": [
        {
          "internalType": "address",
          "name": "target",
          "type": "address"
        }
      ],
      "name": "AddressEmptyCode",
      "type": "error"
    },
    {
      "inputs": [
        {
          "internalType": "address",
          "name": "implementation",
          "type": "address"
        }
      ],
      "name": "ERC1967InvalidImplementation",
      "type": "error"
    },
    {
      "inputs": [],
      "name": "ERC1967NonPayable",
      "type": "error"
    },
    {
      "inputs": [],
      "name": "FailedInnerCall",
      "type": "error"
    },
    {
      "inputs": [],
      "name": "InvalidInitialization",
      "type": "error"
    },
    {
      "inputs": [],
      "name": "NotInitializing",
      "type": "error"
    },
    {
      "inputs": [
        {
          "internalType": "address",
          "name": "owner",
          "type": "address"
        }
      ],
      "name": "OwnableInvalidOwner",
      "type": "error"
    },
    {
      "inputs": [
        {
          "internalType": "address",
          "name": "account",
          "type": "address"
        }
      ],
      "name": "OwnableUnauthorizedAccount",
      "type": "error"
    },
    {
      "inputs": [],
      "name": "UUPSUnauthorizedCallContext",
      "type": "error"
    },
    {
      "inputs": [
        {
          "internalType": "bytes32",
          "name": "slot",
          "type": "bytes32"
        }
      ],
      "name": "UUPSUnsupportedProxiableUUID",
      "type": "error"
    },
    {
      "anonymous": false,
      "inputs": [
        {
          "indexed": false,
          "internalType": "uint64",
          "name": "version",
          "type": "uint64"
        }
      ],
      "name": "Initialized",
      "type": "event"
    },
    {
      "anonymous": false,
      "inputs": [
        {
          "indexed": true,
          "internalType": "address",
          "name": "previousOwner",
          "type": "address"
        },
        {
          "indexed": true,
          "internalType": "address",
          "name": "newOwner",
          "type": "address"
        }
      ],
      "name": "OwnershipTransferred",
      "type": "event"
    },
    {
      "anonymous": false,
      "inputs": [
        {
          "indexed": false,
          "internalType": "address",
          "name": "sbtAddress",
          "type": "address"
        },
        {
          "indexed": false,
          "internalType": "string",
          "name": "name",
          "type": "string"
        },
        {
          "indexed": false,
          "internalType": "string",
          "name": "symbol",
          "type": "string"
        },
        {
          "indexed": false,
          "internalType": "uint256",
          "name": "maxSupply",
          "type": "uint256"
        },
        {
          "indexed": false,
          "internalType": "enum IERC5484.BurnAuth",
          "name": "defaultBurnAuth",
          "type": "uint8"
        },
        {
          "indexed": false,
          "internalType": "string",
          "name": "image",
          "type": "string"
        },
        {
          "indexed": false,
          "internalType": "string",
          "name": "description",
          "type": "string"
        }
      ],
      "name": "SBTCreated",
      "type": "event"
    },
    {
      "anonymous": false,
      "inputs": [
        {
          "indexed": true,
          "internalType": "address",
          "name": "implementation",
          "type": "address"
        }
      ],
      "name": "Upgraded",
      "type": "event"
    },
    {
      "inputs": [],
      "name": "UPGRADE_INTERFACE_VERSION",
      "outputs": [
        {
          "internalType": "string",
          "name": "",
          "type": "string"
        }
      ],
      "stateMutability": "view",
      "type": "function"
    },
    {
      "inputs": [
        {
          "internalType": "string",
          "name": "name",
          "type": "string"
        },
        {
          "internalType": "string",
          "name": "symbol",
          "type": "string"
        },
        {
          "internalType": "string",
          "name": "baseURI",
          "type": "string"
        },
        {
          "internalType": "uint256",
          "name": "maxSupply",
          "type": "uint256"
        },
        {
          "internalType": "enum IERC5484.BurnAuth",
          "name": "defaultBurnAuth",
          "type": "uint8"
        },
        {
          "internalType": "string",
          "name": "image",
          "type": "string"
        },
        {
          "internalType": "string",
          "name": "description",
          "type": "string"
        }
      ],
      "name": "createMembershipSBT",
      "outputs": [
        {
          "internalType": "address",
          "name": "",
          "type": "address"
        }
      ],
      "stateMutability": "payable",
      "type": "function"
    },
    {
      "inputs": [],
      "name": "creationFee",
      "outputs": [
        {
          "internalType": "uint256",
          "name": "",
          "type": "uint256"
        }
      ],
      "stateMutability": "view",
      "type": "function"
    },
    {
      "inputs": [],
      "name": "initialize",
      "outputs": [],
      "stateMutability": "nonpayable",
      "type": "function"
    },
    {
      "inputs": [],
      "name": "owner",
      "outputs": [
        {
          "internalType": "address",
          "name": "",
          "type": "address"
        }
      ],
      "stateMutability": "view",
      "type": "function"
    },
    {
      "inputs": [],
      "name": "proxiableUUID",
      "outputs": [
        {
          "internalType": "bytes32",
          "name": "",
          "type": "bytes32"
        }
      ],
      "stateMutability": "view",
      "type": "function"
    },
    {
      "inputs": [],
      "name": "renounceOwnership",
      "outputs": [],
      "stateMutability": "nonpayable",
      "type": "function"
    },
    {
      "inputs": [
        {
          "internalType": "uint256",
          "name": "_creationFee",
          "type": "uint256"
        }
      ],
      "name": "setCreationFee",
      "outputs": [],
      "stateMutability": "nonpayable",
      "type": "function"
    },
    {
      "inputs": [
        {
          "internalType": "address",
          "name": "newOwner",
          "type": "address"
        }
      ],
      "name": "transferOwnership",
      "outputs": [],
      "stateMutability": "nonpayable",
      "type": "function"
    },
    {
      "inputs": [
        {
          "internalType": "address",
          "name": "newImplementation",
          "type": "address"
        },
        {
          "internalType": "bytes",
          "name": "data",
          "type": "bytes"
        }
      ],
      "name": "upgradeToAndCall",
      "outputs": [],
      "stateMutability": "payable",
      "type": "function"
    },
    {
      "inputs": [],
      "name": "withdraw",
      "outputs": [],
      "stateMutability": "nonpayable",
      "type": "function"
    }
  ],
  "bytecode": "0x60a06040523073ffffffffffffffffffffffffffffffffffffffff1660809073ffffffffffffffffffffffffffffffffffffffff168152503480156200004457600080fd5b50620000556200005b60201b60201c565b620001cf565b60006200006d6200016560201b60201c565b90508060000160089054906101000a900460ff1615620000b9576040517ff92ee8a900000000000000000000000000000000000000000000000000000000815260040160405180910390fd5b67ffffffffffffffff80168160000160009054906101000a900467ffffffffffffffff1667ffffffffffffffff1614620001625767ffffffffffffffff8160000160006101000a81548167ffffffffffffffff021916908367ffffffffffffffff1602179055507fc7f505b2f371ae2175ee4913f4499e1f2633a7b5936321eed1cdaeb6115181d267ffffffffffffffff604051620001599190620001b2565b60405180910390a15b50565b60007ff0c57e16840df040f15088dc2f81fe391c3923bec73e23a9662efc9c229c6a00905090565b600067ffffffffffffffff82169050919050565b620001ac816200018d565b82525050565b6000602082019050620001c96000830184620001a1565b92915050565b608051615a41620001f9600039600081816108370152818161088d0152610a580152615a416000f3fe608060405260043610620000aa5760003560e01c80638da5cb5b116200006d5780638da5cb5b146200014d578063ad3cb1cc146200017d578063b7d8622514620001ad578063d5753ba314620001db578063dce0b4e41462000211578063f2fde38b146200024157620000aa565b80633ccfd60b14620000af5780634f1ef28614620000c957806352d1902d14620000e9578063715018a614620001195780638129fc1c1462000133575b600080fd5b348015620000bc57600080fd5b50620000c76200026f565b005b620000e76004803603810190620000e1919062001264565b62000384565b005b348015620000f657600080fd5b5062000101620003a9565b604051620001109190620012e5565b60405180910390f35b3480156200012657600080fd5b5062000131620003de565b005b3480156200014057600080fd5b506200014b620003f6565b005b3480156200015a57600080fd5b5062000165620005a8565b60405162000174919062001313565b60405180910390f35b3480156200018a57600080fd5b5062000195620005e2565b604051620001a49190620013b9565b60405180910390f35b348015620001ba57600080fd5b50620001d96004803603810190620001d3919062001418565b6200061b565b005b620001f96004803603810190620001f3919062001526565b6200062f565b60405162000208919062001313565b60405180910390f35b3480156200021e57600080fd5b506200022962000712565b60405162000238919062001685565b60405180910390f35b3480156200024e57600080fd5b506200026d6004803603810190620002679190620016a2565b62000718565b005b62000279620007a5565b600047905060008111620002c4576040517f08c379a0000000000000000000000000000000000000000000000000000000008152600401620002bb9062001724565b60405180910390fd5b6000620002d0620005a8565b73ffffffffffffffffffffffffffffffffffffffff1682604051620002f5906200177b565b60006040518083038185875af1925050503d806000811462000334576040519150601f19603f3d011682016040523d82523d6000602084013e62000339565b606091505b505090508062000380576040517f08c379a00000000000000000000000000000000000000000000000000000000081526004016200037790620017e2565b60405180910390fd5b5050565b6200038e62000835565b62000399826200091f565b620003a582826200092c565b5050565b6000620003b562000a56565b7f360894a13ba1a3210667c828492db98dca3e2076cc3735a920a3ca505d382bbc60001b905090565b620003e8620007a5565b620003f4600062000ade565b565b60006200040262000bb7565b905060008160000160089054906101000a900460ff1615905060008260000160009054906101000a900467ffffffffffffffff1690506000808267ffffffffffffffff16148015620004515750825b9050600060018367ffffffffffffffff1614801562000487575060003073ffffffffffffffffffffffffffffffffffffffff163b145b90508115801562000496575080155b15620004ce576040517ff92ee8a900000000000000000000000000000000000000000000000000000000815260040160405180910390fd5b60018560000160006101000a81548167ffffffffffffffff021916908367ffffffffffffffff16021790555083156200051f5760018560000160086101000a81548160ff0219169083151502179055505b6200052a3362000bdf565b6200053462000bf7565b662386f26fc100006000819055508315620005a15760008560000160086101000a81548160ff0219169083151502179055507fc7f505b2f371ae2175ee4913f4499e1f2633a7b5936321eed1cdaeb6115181d2600160405162000598919062001865565b60405180910390a15b5050505050565b600080620005b562000c03565b90508060000160009054906101000a900473ffffffffffffffffffffffffffffffffffffffff1691505090565b6040518060400160405280600581526020017f352e302e3000000000000000000000000000000000000000000000000000000081525081565b62000625620007a5565b8060008190555050565b60008054341462000677576040517f08c379a00000000000000000000000000000000000000000000000000000000081526004016200066e90620018d2565b60405180910390fd5b60008888888888336040516200068d906200107b565b6200069e9695949392919062001974565b604051809103906000f080158015620006bb573d6000803e3d6000fd5b5090507f936d6cbde992288dfdf2c7cc67a39f2c76f4c3b5e9bc2866f85d607267646b4f818a8a89898989604051620006fb9796959493929190620019f6565b60405180910390a180915050979650505050505050565b60005481565b62000722620007a5565b600073ffffffffffffffffffffffffffffffffffffffff168173ffffffffffffffffffffffffffffffffffffffff1603620007975760006040517f1e4fbdf70000000000000000000000000000000000000000000000000000000081526004016200078e919062001313565b60405180910390fd5b620007a28162000ade565b50565b620007af62000c2b565b73ffffffffffffffffffffffffffffffffffffffff16620007cf620005a8565b73ffffffffffffffffffffffffffffffffffffffff16146200083357620007f562000c2b565b6040517f118cdaa70000000000000000000000000000000000000000000000000000000081526004016200082a919062001313565b60405180910390fd5b565b7f000000000000000000000000000000000000000000000000000000000000000073ffffffffffffffffffffffffffffffffffffffff163073ffffffffffffffffffffffffffffffffffffffff161480620008e557507f000000000000000000000000000000000000000000000000000000000000000073ffffffffffffffffffffffffffffffffffffffff16620008cc62000c33565b73ffffffffffffffffffffffffffffffffffffffff1614155b156200091d576040517fe07c8dba00000000000000000000000000000000000000000000000000000000815260040160405180910390fd5b565b62000929620007a5565b50565b8173ffffffffffffffffffffffffffffffffffffffff166352d1902d6040518163ffffffff1660e01b8152600401602060405180830381865afa9250505080156200099757506040513d601f19601f8201168201806040525081019062000994919062001ac0565b60015b620009db57816040517f4c9c8ce3000000000000000000000000000000000000000000000000000000008152600401620009d2919062001313565b60405180910390fd5b7f360894a13ba1a3210667c828492db98dca3e2076cc3735a920a3ca505d382bbc60001b811462000a4557806040517faa1d49a400000000000000000000000000000000000000000000000000000000815260040162000a3c9190620012e5565b60405180910390fd5b62000a51838362000c8c565b505050565b7f000000000000000000000000000000000000000000000000000000000000000073ffffffffffffffffffffffffffffffffffffffff163073ffffffffffffffffffffffffffffffffffffffff161462000adc576040517fe07c8dba00000000000000000000000000000000000000000000000000000000815260040160405180910390fd5b565b600062000aea62000c03565b905060008160000160009054906101000a900473ffffffffffffffffffffffffffffffffffffffff169050828260000160006101000a81548173ffffffffffffffffffffffffffffffffffffffff021916908373ffffffffffffffffffffffffffffffffffffffff1602179055508273ffffffffffffffffffffffffffffffffffffffff168173ffffffffffffffffffffffffffffffffffffffff167f8be0079c531659141344cd1fd0a4f28419497f9722a3daafe3b4186f6b6457e060405160405180910390a3505050565b60007ff0c57e16840df040f15088dc2f81fe391c3923bec73e23a9662efc9c229c6a00905090565b62000be962000d07565b62000bf48162000d4a565b50565b62000c0162000d07565b565b60007f9016d09d72d40fdae2fd8ceac6b6234c7706214fd39c1cd1e609a0528c199300905090565b600033905090565b600062000c637f360894a13ba1a3210667c828492db98dca3e2076cc3735a920a3ca505d382bbc60001b62000dd7565b60000160009054906101000a900473ffffffffffffffffffffffffffffffffffffffff16905090565b62000c978262000de1565b8173ffffffffffffffffffffffffffffffffffffffff167fbc7cd75a20ee27fd9adebab32041f755214dbc6bffa90cc0225b39da2e5c2d3b60405160405180910390a260008151111562000cf85762000cf1828262000eb3565b5062000d03565b62000d0262000f3d565b5b5050565b62000d1162000f7b565b62000d48576040517fd7e6bcf800000000000000000000000000000000000000000000000000000000815260040160405180910390fd5b565b62000d5462000d07565b600073ffffffffffffffffffffffffffffffffffffffff168173ffffffffffffffffffffffffffffffffffffffff160362000dc95760006040517f1e4fbdf700000000000000000000000000000000000000000000000000000000815260040162000dc0919062001313565b60405180910390fd5b62000dd48162000ade565b50565b6000819050919050565b60008173ffffffffffffffffffffffffffffffffffffffff163b0362000e4057806040517f4c9c8ce300000000000000000000000000000000000000000000000000000000815260040162000e37919062001313565b60405180910390fd5b8062000e6f7f360894a13ba1a3210667c828492db98dca3e2076cc3735a920a3ca505d382bbc60001b62000dd7565b60000160006101000a81548173ffffffffffffffffffffffffffffffffffffffff021916908373ffffffffffffffffffffffffffffffffffffffff16021790555050565b60606000808473ffffffffffffffffffffffffffffffffffffffff168460405162000edf919062001b34565b600060405180830381855af49150503d806000811462000f1c576040519150601f19603f3d011682016040523d82523d6000602084013e62000f21565b606091505b509150915062000f3385838362000f9d565b9250505092915050565b600034111562000f79576040517fb398979f00000000000000000000000000000000000000000000000000000000815260040160405180910390fd5b565b600062000f8762000bb7565b60000160089054906101000a900460ff16905090565b60608262000fb65762000fb08262001035565b6200102d565b6000825114801562000fdf575060008473ffffffffffffffffffffffffffffffffffffffff163b145b156200102457836040517f9996b3150000000000000000000000000000000000000000000000000000000081526004016200101b919062001313565b60405180910390fd5b8190506200102e565b5b9392505050565b600081511115620010495780518082602001fd5b6040517f1425ea4200000000000000000000000000000000000000000000000000000000815260040160405180910390fd5b613ebe8062001b4e83390190565b6000604051905090565b600080fd5b600080fd5b600073ffffffffffffffffffffffffffffffffffffffff82169050919050565b6000620010ca826200109d565b9050919050565b620010dc81620010bd565b8114620010e857600080fd5b50565b600081359050620010fc81620010d1565b92915050565b600080fd5b600080fd5b6000601f19601f8301169050919050565b7f4e487b7100000000000000000000000000000000000000000000000000000000600052604160045260246000fd5b62001157826200110c565b810181811067ffffffffffffffff821117156200117957620011786200111d565b5b80604052505050565b60006200118e62001089565b90506200119c82826200114c565b919050565b600067ffffffffffffffff821115620011bf57620011be6200111d565b5b620011ca826200110c565b9050602081019050919050565b82818337600083830152505050565b6000620011fd620011f784620011a1565b62001182565b9050828152602081018484840111156200121c576200121b62001107565b5b62001229848285620011d7565b509392505050565b600082601f83011262001249576200124862001102565b5b81356200125b848260208601620011e6565b91505092915050565b600080604083850312156200127e576200127d62001093565b5b60006200128e85828601620010eb565b925050602083013567ffffffffffffffff811115620012b257620012b162001098565b5b620012c08582860162001231565b9150509250929050565b6000819050919050565b620012df81620012ca565b82525050565b6000602082019050620012fc6000830184620012d4565b92915050565b6200130d81620010bd565b82525050565b60006020820190506200132a600083018462001302565b92915050565b600081519050919050565b600082825260208201905092915050565b60005b838110156200136c5780820151818401526020810190506200134f565b60008484015250505050565b6000620013858262001330565b6200139181856200133b565b9350620013a38185602086016200134c565b620013ae816200110c565b840191505092915050565b60006020820190508181036000830152620013d5818462001378565b905092915050565b6000819050919050565b620013f281620013dd565b8114620013fe57600080fd5b50565b6000813590506200141281620013e7565b92915050565b60006020828403121562001431576200143062001093565b5b6000620014418482850162001401565b91505092915050565b600067ffffffffffffffff8211156200146857620014676200111d565b5b62001473826200110c565b9050602081019050919050565b60006200149762001491846200144a565b62001182565b905082815260208101848484011115620014b657620014b562001107565b5b620014c3848285620011d7565b509392505050565b600082601f830112620014e357620014e262001102565b5b8135620014f584826020860162001480565b91505092915050565b600481106200150c57600080fd5b50565b6000813590506200152081620014fe565b92915050565b600080600080600080600060e0888a03121562001548576200154762001093565b5b600088013567ffffffffffffffff81111562001569576200156862001098565b5b620015778a828b01620014cb565b975050602088013567ffffffffffffffff8111156200159b576200159a62001098565b5b620015a98a828b01620014cb565b965050604088013567ffffffffffffffff811115620015cd57620015cc62001098565b5b620015db8a828b01620014cb565b9550506060620015ee8a828b0162001401565b9450506080620016018a828b016200150f565b93505060a088013567ffffffffffffffff81111562001625576200162462001098565b5b620016338a828b01620014cb565b92505060c088013567ffffffffffffffff81111562001657576200165662001098565b5b620016658a828b01620014cb565b91505092959891949750929550565b6200167f81620013dd565b82525050565b60006020820190506200169c600083018462001674565b92915050565b600060208284031215620016bb57620016ba62001093565b5b6000620016cb84828501620010eb565b91505092915050565b7f4e6f2066756e647320746f207769746864726177000000000000000000000000600082015250565b60006200170c6014836200133b565b91506200171982620016d4565b602082019050919050565b600060208201905081810360008301526200173f81620016fd565b9050919050565b600081905092915050565b50565b60006200176360008362001746565b9150620017708262001751565b600082019050919050565b6000620017888262001754565b9150819050919050565b7f5769746864726177616c206661696c6564000000000000000000000000000000600082015250565b6000620017ca6011836200133b565b9150620017d78262001792565b602082019050919050565b60006020820190508181036000830152620017fd81620017bb565b9050919050565b6000819050919050565b600067ffffffffffffffff82169050919050565b6000819050919050565b60006200184d62001847620018418462001804565b62001822565b6200180e565b9050919050565b6200185f816200182c565b82525050565b60006020820190506200187c600083018462001854565b92915050565b7f496e636f72726563742066656500000000000000000000000000000000000000600082015250565b6000620018ba600d836200133b565b9150620018c78262001882565b602082019050919050565b60006020820190508181036000830152620018ed81620018ab565b9050919050565b7f4e487b7100000000000000000000000000000000000000000000000000000000600052602160045260246000fd5b60048110620019375762001936620018f4565b5b50565b60008190506200194a8262001923565b919050565b60006200195c826200193a565b9050919050565b6200196e816200194f565b82525050565b600060c082019050818103600083015262001990818962001378565b90508181036020830152620019a6818862001378565b90508181036040830152620019bc818762001378565b9050620019cd606083018662001674565b620019dc608083018562001963565b620019eb60a083018462001302565b979650505050505050565b600060e08201905062001a0d600083018a62001302565b818103602083015262001a21818962001378565b9050818103604083015262001a37818862001378565b905062001a48606083018762001674565b62001a57608083018662001963565b81810360a083015262001a6b818562001378565b905081810360c083015262001a81818462001378565b905098975050505050505050565b62001a9a81620012ca565b811462001aa657600080fd5b50565b60008151905062001aba8162001a8f565b92915050565b60006020828403121562001ad95762001ad862001093565b5b600062001ae98482850162001aa9565b91505092915050565b600081519050919050565b600062001b0a8262001af2565b62001b16818562001746565b935062001b288185602086016200134c565b80840191505092915050565b600062001b42828462001afd565b91508190509291505056fe60806040523480156200001157600080fd5b5060405162003ebe38038062003ebe83398181016040528101906200003791906200045a565b80868681600090816200004b919062000794565b5080600190816200005d919062000794565b505050600073ffffffffffffffffffffffffffffffffffffffff168173ffffffffffffffffffffffffffffffffffffffff1603620000d55760006040517f1e4fbdf7000000000000000000000000000000000000000000000000000000008152600401620000cc91906200088c565b60405180910390fd5b620000e6816200013960201b60201c565b508360079081620000f8919062000794565b508260088190555081600b60006101000a81548160ff02191690836003811115620001285762000127620008a9565b5b0217905550505050505050620008d8565b6000600660009054906101000a900473ffffffffffffffffffffffffffffffffffffffff16905081600660006101000a81548173ffffffffffffffffffffffffffffffffffffffff021916908373ffffffffffffffffffffffffffffffffffffffff1602179055508173ffffffffffffffffffffffffffffffffffffffff168173ffffffffffffffffffffffffffffffffffffffff167f8be0079c531659141344cd1fd0a4f28419497f9722a3daafe3b4186f6b6457e060405160405180910390a35050565b6000604051905090565b600080fd5b600080fd5b600080fd5b600080fd5b6000601f19601f8301169050919050565b7f4e487b7100000000000000000000000000000000000000000000000000000000600052604160045260246000fd5b62000268826200021d565b810181811067ffffffffffffffff821117156200028a57620002896200022e565b5b80604052505050565b60006200029f620001ff565b9050620002ad82826200025d565b919050565b600067ffffffffffffffff821115620002d057620002cf6200022e565b5b620002db826200021d565b9050602081019050919050565b60005b8381101562000308578082015181840152602081019050620002eb565b60008484015250505050565b60006200032b6200032584620002b2565b62000293565b9050828152602081018484840111156200034a576200034962000218565b5b62000357848285620002e8565b509392505050565b600082601f83011262000377576200037662000213565b5b81516200038984826020860162000314565b91505092915050565b6000819050919050565b620003a78162000392565b8114620003b357600080fd5b50565b600081519050620003c7816200039c565b92915050565b60048110620003db57600080fd5b50565b600081519050620003ef81620003cd565b92915050565b600073ffffffffffffffffffffffffffffffffffffffff82169050919050565b60006200042282620003f5565b9050919050565b620004348162000415565b81146200044057600080fd5b50565b600081519050620004548162000429565b92915050565b60008060008060008060c087890312156200047a576200047962000209565b5b600087015167ffffffffffffffff8111156200049b576200049a6200020e565b5b620004a989828a016200035f565b965050602087015167ffffffffffffffff811115620004cd57620004cc6200020e565b5b620004db89828a016200035f565b955050604087015167ffffffffffffffff811115620004ff57620004fe6200020e565b5b6200050d89828a016200035f565b94505060606200052089828a01620003b6565b93505060806200053389828a01620003de565b92505060a06200054689828a0162000443565b9150509295509295509295565b600081519050919050565b7f4e487b7100000000000000000000000000000000000000000000000000000000600052602260045260246000fd5b60006002820490506001821680620005a657607f821691505b602082108103620005bc57620005bb6200055e565b5b50919050565b60008190508160005260206000209050919050565b60006020601f8301049050919050565b600082821b905092915050565b600060088302620006267fffffffffffffffffffffffffffffffffffffffffffffffffffffffffffffffff82620005e7565b620006328683620005e7565b95508019841693508086168417925050509392505050565b6000819050919050565b6000620006756200066f620006698462000392565b6200064a565b62000392565b9050919050565b6000819050919050565b620006918362000654565b620006a9620006a0826200067c565b848454620005f4565b825550505050565b600090565b620006c0620006b1565b620006cd81848462000686565b505050565b5b81811015620006f557620006e9600082620006b6565b600181019050620006d3565b5050565b601f82111562000744576200070e81620005c2565b6200071984620005d7565b8101602085101562000729578190505b620007416200073885620005d7565b830182620006d2565b50505b505050565b600082821c905092915050565b6000620007696000198460080262000749565b1980831691505092915050565b600062000784838362000756565b9150826002028217905092915050565b6200079f8262000553565b67ffffffffffffffff811115620007bb57620007ba6200022e565b5b620007c782546200058d565b620007d4828285620006f9565b600060209050601f8311600181146200080c5760008415620007f7578287015190505b62000803858262000776565b86555062000873565b601f1984166200081c86620005c2565b60005b8281101562000846578489015182556001820191506020850194506020810190506200081f565b8683101562000866578489015162000862601f89168262000756565b8355505b6001600288020188555050505b505050505050565b620008868162000415565b82525050565b6000602082019050620008a360008301846200087b565b92915050565b7f4e487b7100000000000000000000000000000000000000000000000000000000600052602160045260246000fd5b6135d680620008e86000396000f3fe608060405234801561001057600080fd5b50600436106101735760003560e01c806370a08231116100de578063b88d4fde11610097578063dd46706411610071578063dd46706414610446578063e52a7c5c14610462578063e985e9c51461047e578063f2fde38b146104ae57610173565b8063b88d4fde146103dc578063c87b56dd146103f8578063d5abeb011461042857610173565b806370a082311461031a578063715018a61461034a5780638da5cb5b1461035457806395d89b4114610372578063a22cb46514610390578063b45a3c0e146103ac57610173565b80632655227811610130578063265522781461025e57806340d097c31461027a57806342842e0e1461029657806342966c68146102b25780636198e339146102ce5780636352211e146102ea57610173565b806301ffc9a7146101785780630489b56f146101a857806306fdde03146101d8578063081812fc146101f6578063095ea7b31461022657806323b872dd14610242575b600080fd5b610192600480360381019061018d919061246d565b6104ca565b60405161019f91906124b5565b60405180910390f35b6101c260048036038101906101bd9190612506565b6105ac565b6040516101cf91906125aa565b60405180910390f35b6101e06105d6565b6040516101ed9190612655565b60405180910390f35b610210600480360381019061020b9190612506565b610668565b60405161021d91906126b8565b60405180910390f35b610240600480360381019061023b91906126ff565b610684565b005b61025c6004803603810190610257919061273f565b61069a565b005b610278600480360381019061027391906128da565b61079c565b005b610294600480360381019061028f9190612923565b6107ea565b005b6102b060048036038101906102ab919061273f565b610992565b005b6102cc60048036038101906102c79190612506565b6109b2565b005b6102e860048036038101906102e39190612506565b610c6f565b005b61030460048036038101906102ff9190612506565b610cdd565b60405161031191906126b8565b60405180910390f35b610334600480360381019061032f9190612923565b610cef565b604051610341919061295f565b60405180910390f35b610352610da9565b005b61035c610dbd565b60405161036991906126b8565b60405180910390f35b61037a610de7565b6040516103879190612655565b60405180910390f35b6103aa60048036038101906103a591906129a6565b610e79565b005b6103c660048036038101906103c19190612506565b610e8f565b6040516103d391906124b5565b60405180910390f35b6103f660048036038101906103f19190612a9b565b610eb9565b005b610412600480360381019061040d9190612506565b610ed6565b60405161041f9190612655565b60405180910390f35b610430610f3f565b60405161043d919061295f565b60405180910390f35b610460600480360381019061045b9190612506565b610f45565b005b61047c60048036038101906104779190612be4565b610fb3565b005b61049860048036038101906104939190612cb3565b6111a8565b6040516104a591906124b5565b60405180910390f35b6104c860048036038101906104c39190612923565b61123c565b005b60007fb45a3c0e000000000000000000000000000000000000000000000000000000007bffffffffffffffffffffffffffffffffffffffffffffffffffffffff1916827bffffffffffffffffffffffffffffffffffffffffffffffffffffffff1916148061059557507f0489b56f000000000000000000000000000000000000000000000000000000007bffffffffffffffffffffffffffffffffffffffffffffffffffffffff1916827bffffffffffffffffffffffffffffffffffffffffffffffffffffffff1916145b806105a557506105a4826112c2565b5b9050919050565b6000600c600083815260200190815260200160002060009054906101000a900460ff169050919050565b6060600080546105e590612d22565b80601f016020809104026020016040519081016040528092919081815260200182805461061190612d22565b801561065e5780601f106106335761010080835404028352916020019161065e565b820191906000526020600020905b81548152906001019060200180831161064157829003601f168201915b5050505050905090565b6000610673826113a4565b5061067d8261142c565b9050919050565b6106968282610691611469565b611471565b5050565b600073ffffffffffffffffffffffffffffffffffffffff168273ffffffffffffffffffffffffffffffffffffffff160361070c5760006040517f64a0ae9200000000000000000000000000000000000000000000000000000000815260040161070391906126b8565b60405180910390fd5b6000610720838361071b611469565b611483565b90508373ffffffffffffffffffffffffffffffffffffffff168173ffffffffffffffffffffffffffffffffffffffff1614610796578382826040517f64283d7b00000000000000000000000000000000000000000000000000000000815260040161078d93929190612d53565b60405180910390fd5b50505050565b6107a4611517565b60005b81518110156107e6576107d38282815181106107c6576107c5612d8a565b5b60200260200101516107ea565b80806107de90612de8565b9150506107a7565b5050565b6107f2611517565b60006107fd82610cef565b1461083d576040517f08c379a000000000000000000000000000000000000000000000000000000000815260040161083490612e7c565b60405180910390fd5b600060085414806108515750600854600954105b610890576040517f08c379a000000000000000000000000000000000000000000000000000000000815260040161088790612ee8565b60405180910390fd5b6000600960008154809291906108a590612de8565b919050559050600b60009054906101000a900460ff16600c600083815260200190815260200160002060006101000a81548160ff021916908360038111156108f0576108ef612533565b5b02179055506108ff828261159e565b61090881610f45565b808273ffffffffffffffffffffffffffffffffffffffff163373ffffffffffffffffffffffffffffffffffffffff167f135ffb3383e06280e062ac5095bbf8faa98517161e596a2536bd98a9a8b64a88600c600086815260200190815260200160002060009054906101000a900460ff1660405161098691906125aa565b60405180910390a45050565b6109ad83838360405180602001604052806000815250610eb9565b505050565b6000600c600083815260200190815260200160002060009054906101000a900460ff169050600060038111156109eb576109ea612533565b5b8160038111156109fe576109fd612533565b5b03610a79573373ffffffffffffffffffffffffffffffffffffffff16610a22610dbd565b73ffffffffffffffffffffffffffffffffffffffff1614610a78576040517f08c379a0000000000000000000000000000000000000000000000000000000008152600401610a6f90612f54565b60405180910390fd5b5b60016003811115610a8d57610a8c612533565b5b816003811115610aa057610a9f612533565b5b03610b1c573373ffffffffffffffffffffffffffffffffffffffff16610ac583610cdd565b73ffffffffffffffffffffffffffffffffffffffff1614610b1b576040517f08c379a0000000000000000000000000000000000000000000000000000000008152600401610b1290612fc0565b60405180910390fd5b5b60026003811115610b3057610b2f612533565b5b816003811115610b4357610b42612533565b5b03610bfc573373ffffffffffffffffffffffffffffffffffffffff16610b67610dbd565b73ffffffffffffffffffffffffffffffffffffffff161480610bbc57503373ffffffffffffffffffffffffffffffffffffffff16610ba483610cdd565b73ffffffffffffffffffffffffffffffffffffffff16145b610bfb576040517f08c379a0000000000000000000000000000000000000000000000000000000008152600401610bf29061302c565b60405180910390fd5b5b600380811115610c0f57610c0e612533565b5b816003811115610c2257610c21612533565b5b03610c62576040517f08c379a0000000000000000000000000000000000000000000000000000000008152600401610c5990613098565b60405180910390fd5b610c6b826115bc565b5050565b610c77611517565b6000600a600083815260200190815260200160002060006101000a81548160ff0219169083151502179055507ff27b6ce5b2f5e68ddb2fd95a8a909d4ecf1daaac270935fff052feacb24f184281604051610cd2919061295f565b60405180910390a150565b6000610ce8826113a4565b9050919050565b60008073ffffffffffffffffffffffffffffffffffffffff168273ffffffffffffffffffffffffffffffffffffffff1603610d625760006040517f89c62b64000000000000000000000000000000000000000000000000000000008152600401610d5991906126b8565b60405180910390fd5b600360008373ffffffffffffffffffffffffffffffffffffffff1673ffffffffffffffffffffffffffffffffffffffff168152602001908152602001600020549050919050565b610db1611517565b610dbb6000611642565b565b6000600660009054906101000a900473ffffffffffffffffffffffffffffffffffffffff16905090565b606060018054610df690612d22565b80601f0160208091040260200160405190810160405280929190818152602001828054610e2290612d22565b8015610e6f5780601f10610e4457610100808354040283529160200191610e6f565b820191906000526020600020905b815481529060010190602001808311610e5257829003601f168201915b5050505050905090565b610e8b610e84611469565b8383611708565b5050565b6000600a600083815260200190815260200160002060009054906101000a900460ff169050919050565b610ec484848461069a565b610ed084848484611877565b50505050565b6060610ee1826113a4565b506000610eec611a2e565b90506000815111610f0c5760405180602001604052806000815250610f37565b80610f1684611ac0565b604051602001610f279291906130f4565b6040516020818303038152906040525b915050919050565b60085481565b610f4d611517565b6001600a600083815260200190815260200160002060006101000a81548160ff0219169083151502179055507f032bc66be43dbccb7487781d168eb7bda224628a3b2c3388bdf69b532a3a161181604051610fa8919061295f565b60405180910390a150565b610fbb611517565b84604051602001610fcc9190613118565b60405160208183030381529060405280519060200120610fea611a2e565b604051602001610ffa9190613118565b604051602081830303815290604052805190602001201461106157846007908161102491906132db565b507f583a827e8e57c8f220e0813e99fca31a490a33fb86837eb3c10aa594e413e8fb858383604051611058939291906133ad565b60405180910390a15b83600854146110a957836008819055507facc639f1ff310faf48650d02a82bd24c924e45a5050fc931245096ac57c309d9846040516110a0919061295f565b60405180910390a15b8260038111156110bc576110bb612533565b5b600b60009054906101000a900460ff1660038111156110de576110dd612533565b5b146111a15782600b60006101000a81548160ff0219169083600381111561110857611107612533565b5b021790555060005b6009548110156111685783600c600083815260200190815260200160002060006101000a81548160ff021916908360038111156111505761114f612533565b5b0217905550808061116090612de8565b915050611110565b507f6d5107b692487c754ea873b30344a68b2b0400cf340bbd5619070518dfbb523e8360405161119891906125aa565b60405180910390a15b5050505050565b6000600560008473ffffffffffffffffffffffffffffffffffffffff1673ffffffffffffffffffffffffffffffffffffffff16815260200190815260200160002060008373ffffffffffffffffffffffffffffffffffffffff1673ffffffffffffffffffffffffffffffffffffffff16815260200190815260200160002060009054906101000a900460ff16905092915050565b611244611517565b600073ffffffffffffffffffffffffffffffffffffffff168173ffffffffffffffffffffffffffffffffffffffff16036112b65760006040517f1e4fbdf70000000000000000000000000000000000000000000000000000000081526004016112ad91906126b8565b60405180910390fd5b6112bf81611642565b50565b60007f80ac58cd000000000000000000000000000000000000000000000000000000007bffffffffffffffffffffffffffffffffffffffffffffffffffffffff1916827bffffffffffffffffffffffffffffffffffffffffffffffffffffffff1916148061138d57507f5b5e139f000000000000000000000000000000000000000000000000000000007bffffffffffffffffffffffffffffffffffffffffffffffffffffffff1916827bffffffffffffffffffffffffffffffffffffffffffffffffffffffff1916145b8061139d575061139c82611b8e565b5b9050919050565b6000806113b083611bf8565b9050600073ffffffffffffffffffffffffffffffffffffffff168173ffffffffffffffffffffffffffffffffffffffff160361142357826040517f7e27328900000000000000000000000000000000000000000000000000000000815260040161141a919061295f565b60405180910390fd5b80915050919050565b60006004600083815260200190815260200160002060009054906101000a900473ffffffffffffffffffffffffffffffffffffffff169050919050565b600033905090565b61147e8383836001611c35565b505050565b600061148e83610e8f565b1561150357600073ffffffffffffffffffffffffffffffffffffffff168473ffffffffffffffffffffffffffffffffffffffff1614611502576040517f08c379a00000000000000000000000000000000000000000000000000000000081526004016114f990613445565b60405180910390fd5b5b61150e848484611dfa565b90509392505050565b61151f611469565b73ffffffffffffffffffffffffffffffffffffffff1661153d610dbd565b73ffffffffffffffffffffffffffffffffffffffff161461159c57611560611469565b6040517f118cdaa700000000000000000000000000000000000000000000000000000000815260040161159391906126b8565b60405180910390fd5b565b6115b8828260405180602001604052806000815250612014565b5050565b60006115cb6000836000611483565b9050600073ffffffffffffffffffffffffffffffffffffffff168173ffffffffffffffffffffffffffffffffffffffff160361163e57816040517f7e273289000000000000000000000000000000000000000000000000000000008152600401611635919061295f565b60405180910390fd5b5050565b6000600660009054906101000a900473ffffffffffffffffffffffffffffffffffffffff16905081600660006101000a81548173ffffffffffffffffffffffffffffffffffffffff021916908373ffffffffffffffffffffffffffffffffffffffff1602179055508173ffffffffffffffffffffffffffffffffffffffff168173ffffffffffffffffffffffffffffffffffffffff167f8be0079c531659141344cd1fd0a4f28419497f9722a3daafe3b4186f6b6457e060405160405180910390a35050565b600073ffffffffffffffffffffffffffffffffffffffff168273ffffffffffffffffffffffffffffffffffffffff160361177957816040517f5b08ba1800000000000000000000000000000000000000000000000000000000815260040161177091906126b8565b60405180910390fd5b80600560008573ffffffffffffffffffffffffffffffffffffffff1673ffffffffffffffffffffffffffffffffffffffff16815260200190815260200160002060008473ffffffffffffffffffffffffffffffffffffffff1673ffffffffffffffffffffffffffffffffffffffff16815260200190815260200160002060006101000a81548160ff0219169083151502179055508173ffffffffffffffffffffffffffffffffffffffff168373ffffffffffffffffffffffffffffffffffffffff167f17307eab39ab6107e8899845ad3d59bd9653f200f220920489ca2b5937696c318360405161186a91906124b5565b60405180910390a3505050565b60008373ffffffffffffffffffffffffffffffffffffffff163b1115611a28578273ffffffffffffffffffffffffffffffffffffffff1663150b7a026118bb611469565b8685856040518563ffffffff1660e01b81526004016118dd94939291906134ba565b6020604051808303816000875af192505050801561191957506040513d601f19601f82011682018060405250810190611916919061351b565b60015b61199d573d8060008114611949576040519150601f19603f3d011682016040523d82523d6000602084013e61194e565b606091505b50600081510361199557836040517f64a0ae9200000000000000000000000000000000000000000000000000000000815260040161198c91906126b8565b60405180910390fd5b805181602001fd5b63150b7a0260e01b7bffffffffffffffffffffffffffffffffffffffffffffffffffffffff1916817bffffffffffffffffffffffffffffffffffffffffffffffffffffffff191614611a2657836040517f64a0ae92000000000000000000000000000000000000000000000000000000008152600401611a1d91906126b8565b60405180910390fd5b505b50505050565b606060078054611a3d90612d22565b80601f0160208091040260200160405190810160405280929190818152602001828054611a6990612d22565b8015611ab65780601f10611a8b57610100808354040283529160200191611ab6565b820191906000526020600020905b815481529060010190602001808311611a9957829003601f168201915b5050505050905090565b606060006001611acf84612030565b01905060008167ffffffffffffffff811115611aee57611aed612797565b5b6040519080825280601f01601f191660200182016040528015611b205781602001600182028036833780820191505090505b509050600082602001820190505b600115611b83578080600190039150507f3031323334353637383961626364656600000000000000000000000000000000600a86061a8153600a8581611b7757611b76613548565b5b04945060008503611b2e575b819350505050919050565b60007f01ffc9a7000000000000000000000000000000000000000000000000000000007bffffffffffffffffffffffffffffffffffffffffffffffffffffffff1916827bffffffffffffffffffffffffffffffffffffffffffffffffffffffff1916149050919050565b60006002600083815260200190815260200160002060009054906101000a900473ffffffffffffffffffffffffffffffffffffffff169050919050565b8080611c6e5750600073ffffffffffffffffffffffffffffffffffffffff168273ffffffffffffffffffffffffffffffffffffffff1614155b15611da2576000611c7e846113a4565b9050600073ffffffffffffffffffffffffffffffffffffffff168373ffffffffffffffffffffffffffffffffffffffff1614158015611ce957508273ffffffffffffffffffffffffffffffffffffffff168173ffffffffffffffffffffffffffffffffffffffff1614155b8015611cfc5750611cfa81846111a8565b155b15611d3e57826040517fa9fbf51f000000000000000000000000000000000000000000000000000000008152600401611d3591906126b8565b60405180910390fd5b8115611da057838573ffffffffffffffffffffffffffffffffffffffff168273ffffffffffffffffffffffffffffffffffffffff167f8c5be1e5ebec7d5bd14f71427d1e84f3dd0314c0f7b2291e5b200ac8c7c3b92560405160405180910390a45b505b836004600085815260200190815260200160002060006101000a81548173ffffffffffffffffffffffffffffffffffffffff021916908373ffffffffffffffffffffffffffffffffffffffff16021790555050505050565b600080611e0684611bf8565b9050600073ffffffffffffffffffffffffffffffffffffffff168373ffffffffffffffffffffffffffffffffffffffff1614611e4857611e47818486612183565b5b600073ffffffffffffffffffffffffffffffffffffffff168173ffffffffffffffffffffffffffffffffffffffff1614611ed957611e8a600085600080611c35565b6001600360008373ffffffffffffffffffffffffffffffffffffffff1673ffffffffffffffffffffffffffffffffffffffff168152602001908152602001600020600082825403925050819055505b600073ffffffffffffffffffffffffffffffffffffffff168573ffffffffffffffffffffffffffffffffffffffff1614611f5c576001600360008773ffffffffffffffffffffffffffffffffffffffff1673ffffffffffffffffffffffffffffffffffffffff168152602001908152602001600020600082825401925050819055505b846002600086815260200190815260200160002060006101000a81548173ffffffffffffffffffffffffffffffffffffffff021916908373ffffffffffffffffffffffffffffffffffffffff160217905550838573ffffffffffffffffffffffffffffffffffffffff168273ffffffffffffffffffffffffffffffffffffffff167fddf252ad1be2c89b69c2b068fc378daa952ba7f163c4a11628f55a4df523b3ef60405160405180910390a4809150509392505050565b61201e8383612247565b61202b6000848484611877565b505050565b600080600090507a184f03e93ff9f4daa797ed6e38ed64bf6a1f010000000000000000831061208e577a184f03e93ff9f4daa797ed6e38ed64bf6a1f010000000000000000838161208457612083613548565b5b0492506040810190505b6d04ee2d6d415b85acef810000000083106120cb576d04ee2d6d415b85acef810000000083816120c1576120c0613548565b5b0492506020810190505b662386f26fc1000083106120fa57662386f26fc1000083816120f0576120ef613548565b5b0492506010810190505b6305f5e1008310612123576305f5e100838161211957612118613548565b5b0492506008810190505b612710831061214857612710838161213e5761213d613548565b5b0492506004810190505b6064831061216b576064838161216157612160613548565b5b0492506002810190505b600a831061217a576001810190505b80915050919050565b61218e838383612340565b61224257600073ffffffffffffffffffffffffffffffffffffffff168373ffffffffffffffffffffffffffffffffffffffff160361220357806040517f7e2732890000000000000000000000000000000000000000000000000000000081526004016121fa919061295f565b60405180910390fd5b81816040517f177e802f000000000000000000000000000000000000000000000000000000008152600401612239929190613577565b60405180910390fd5b505050565b600073ffffffffffffffffffffffffffffffffffffffff168273ffffffffffffffffffffffffffffffffffffffff16036122b95760006040517f64a0ae920000000000000000000000000000000000000000000000000000000081526004016122b091906126b8565b60405180910390fd5b60006122c783836000611483565b9050600073ffffffffffffffffffffffffffffffffffffffff168173ffffffffffffffffffffffffffffffffffffffff161461233b5760006040517f73c6ac6e00000000000000000000000000000000000000000000000000000000815260040161233291906126b8565b60405180910390fd5b505050565b60008073ffffffffffffffffffffffffffffffffffffffff168373ffffffffffffffffffffffffffffffffffffffff16141580156123f857508273ffffffffffffffffffffffffffffffffffffffff168473ffffffffffffffffffffffffffffffffffffffff1614806123b957506123b884846111a8565b5b806123f757508273ffffffffffffffffffffffffffffffffffffffff166123df8361142c565b73ffffffffffffffffffffffffffffffffffffffff16145b5b90509392505050565b6000604051905090565b600080fd5b600080fd5b60007fffffffff0000000000000000000000000000000000000000000000000000000082169050919050565b61244a81612415565b811461245557600080fd5b50565b60008135905061246781612441565b92915050565b6000602082840312156124835761248261240b565b5b600061249184828501612458565b91505092915050565b60008115159050919050565b6124af8161249a565b82525050565b60006020820190506124ca60008301846124a6565b92915050565b6000819050919050565b6124e3816124d0565b81146124ee57600080fd5b50565b600081359050612500816124da565b92915050565b60006020828403121561251c5761251b61240b565b5b600061252a848285016124f1565b91505092915050565b7f4e487b7100000000000000000000000000000000000000000000000000000000600052602160045260246000fd5b6004811061257357612572612533565b5b50565b600081905061258482612562565b919050565b600061259482612576565b9050919050565b6125a481612589565b82525050565b60006020820190506125bf600083018461259b565b92915050565b600081519050919050565b600082825260208201905092915050565b60005b838110156125ff5780820151818401526020810190506125e4565b60008484015250505050565b6000601f19601f8301169050919050565b6000612627826125c5565b61263181856125d0565b93506126418185602086016125e1565b61264a8161260b565b840191505092915050565b6000602082019050818103600083015261266f818461261c565b905092915050565b600073ffffffffffffffffffffffffffffffffffffffff82169050919050565b60006126a282612677565b9050919050565b6126b281612697565b82525050565b60006020820190506126cd60008301846126a9565b92915050565b6126dc81612697565b81146126e757600080fd5b50565b6000813590506126f9816126d3565b92915050565b600080604083850312156127165761271561240b565b5b6000612724858286016126ea565b9250506020612735858286016124f1565b9150509250929050565b6000806000606084860312156127585761275761240b565b5b6000612766868287016126ea565b9350506020612777868287016126ea565b9250506040612788868287016124f1565b9150509250925092565b600080fd5b7f4e487b7100000000000000000000000000000000000000000000000000000000600052604160045260246000fd5b6127cf8261260b565b810181811067ffffffffffffffff821117156127ee576127ed612797565b5b80604052505050565b6000612801612401565b905061280d82826127c6565b919050565b600067ffffffffffffffff82111561282d5761282c612797565b5b602082029050602081019050919050565b600080fd5b600061285661285184612812565b6127f7565b905080838252602082019050602084028301858111156128795761287861283e565b5b835b818110156128a2578061288e88826126ea565b84526020840193505060208101905061287b565b5050509392505050565b600082601f8301126128c1576128c0612792565b5b81356128d1848260208601612843565b91505092915050565b6000602082840312156128f0576128ef61240b565b5b600082013567ffffffffffffffff81111561290e5761290d612410565b5b61291a848285016128ac565b91505092915050565b6000602082840312156129395761293861240b565b5b6000612947848285016126ea565b91505092915050565b612959816124d0565b82525050565b60006020820190506129746000830184612950565b92915050565b6129838161249a565b811461298e57600080fd5b50565b6000813590506129a08161297a565b92915050565b600080604083850312156129bd576129bc61240b565b5b60006129cb858286016126ea565b92505060206129dc85828601612991565b9150509250929050565b600080fd5b600067ffffffffffffffff821115612a0657612a05612797565b5b612a0f8261260b565b9050602081019050919050565b82818337600083830152505050565b6000612a3e612a39846129eb565b6127f7565b905082815260208101848484011115612a5a57612a596129e6565b5b612a65848285612a1c565b509392505050565b600082601f830112612a8257612a81612792565b5b8135612a92848260208601612a2b565b91505092915050565b60008060008060808587031215612ab557612ab461240b565b5b6000612ac3878288016126ea565b9450506020612ad4878288016126ea565b9350506040612ae5878288016124f1565b925050606085013567ffffffffffffffff811115612b0657612b05612410565b5b612b1287828801612a6d565b91505092959194509250565b600067ffffffffffffffff821115612b3957612b38612797565b5b612b428261260b565b9050602081019050919050565b6000612b62612b5d84612b1e565b6127f7565b905082815260208101848484011115612b7e57612b7d6129e6565b5b612b89848285612a1c565b509392505050565b600082601f830112612ba657612ba5612792565b5b8135612bb6848260208601612b4f565b91505092915050565b60048110612bcc57600080fd5b50565b600081359050612bde81612bbf565b92915050565b600080600080600060a08688031215612c0057612bff61240b565b5b600086013567ffffffffffffffff811115612c1e57612c1d612410565b5b612c2a88828901612b91565b9550506020612c3b888289016124f1565b9450506040612c4c88828901612bcf565b935050606086013567ffffffffffffffff811115612c6d57612c6c612410565b5b612c7988828901612b91565b925050608086013567ffffffffffffffff811115612c9a57612c99612410565b5b612ca688828901612b91565b9150509295509295909350565b60008060408385031215612cca57612cc961240b565b5b6000612cd8858286016126ea565b9250506020612ce9858286016126ea565b9150509250929050565b7f4e487b7100000000000000000000000000000000000000000000000000000000600052602260045260246000fd5b60006002820490506001821680612d3a57607f821691505b602082108103612d4d57612d4c612cf3565b5b50919050565b6000606082019050612d6860008301866126a9565b612d756020830185612950565b612d8260408301846126a9565b949350505050565b7f4e487b7100000000000000000000000000000000000000000000000000000000600052603260045260246000fd5b7f4e487b7100000000000000000000000000000000000000000000000000000000600052601160045260246000fd5b6000612df3826124d0565b91507fffffffffffffffffffffffffffffffffffffffffffffffffffffffffffffffff8203612e2557612e24612db9565b5b600182019050919050565b7f596f752063616e206d696e74206f6e6c79206f6e6520746f6b656e0000000000600082015250565b6000612e66601b836125d0565b9150612e7182612e30565b602082019050919050565b60006020820190508181036000830152612e9581612e59565b9050919050565b7f4d617820737570706c7920726561636865640000000000000000000000000000600082015250565b6000612ed26012836125d0565b9150612edd82612e9c565b602082019050919050565b60006020820190508181036000830152612f0181612ec5565b9050919050565b7f4f6e6c79206973737565722063616e206275726e000000000000000000000000600082015250565b6000612f3e6014836125d0565b9150612f4982612f08565b602082019050919050565b60006020820190508181036000830152612f6d81612f31565b9050919050565b7f4f6e6c79206f776e65722063616e206275726e00000000000000000000000000600082015250565b6000612faa6013836125d0565b9150612fb582612f74565b602082019050919050565b60006020820190508181036000830152612fd981612f9d565b9050919050565b7f4f6e6c7920697373756572206f72206f776e65722063616e206275726e000000600082015250565b6000613016601d836125d0565b915061302182612fe0565b602082019050919050565b6000602082019050818103600083015261304581613009565b9050919050565b7f4275726e696e67206e6f7420616c6c6f77656400000000000000000000000000600082015250565b60006130826013836125d0565b915061308d8261304c565b602082019050919050565b600060208201905081810360008301526130b181613075565b9050919050565b600081905092915050565b60006130ce826125c5565b6130d881856130b8565b93506130e88185602086016125e1565b80840191505092915050565b600061310082856130c3565b915061310c82846130c3565b91508190509392505050565b600061312482846130c3565b915081905092915050565b60008190508160005260206000209050919050565b60006020601f8301049050919050565b600082821b905092915050565b6000600883026131917fffffffffffffffffffffffffffffffffffffffffffffffffffffffffffffffff82613154565b61319b8683613154565b95508019841693508086168417925050509392505050565b6000819050919050565b60006131d86131d36131ce846124d0565b6131b3565b6124d0565b9050919050565b6000819050919050565b6131f2836131bd565b6132066131fe826131df565b848454613161565b825550505050565b600090565b61321b61320e565b6132268184846131e9565b505050565b5b8181101561324a5761323f600082613213565b60018101905061322c565b5050565b601f82111561328f576132608161312f565b61326984613144565b81016020851015613278578190505b61328c61328485613144565b83018261322b565b50505b505050565b600082821c905092915050565b60006132b260001984600802613294565b1980831691505092915050565b60006132cb83836132a1565b9150826002028217905092915050565b6132e4826125c5565b67ffffffffffffffff8111156132fd576132fc612797565b5b6133078254612d22565b61331282828561324e565b600060209050601f8311600181146133455760008415613333578287015190505b61333d85826132bf565b8655506133a5565b601f1984166133538661312f565b60005b8281101561337b57848901518255600182019150602085019450602081019050613356565b868310156133985784890151613394601f8916826132a1565b8355505b6001600288020188555050505b505050505050565b600060608201905081810360008301526133c7818661261c565b905081810360208301526133db818561261c565b905081810360408301526133ef818461261c565b9050949350505050565b7f546f6b656e206973206c6f636b65640000000000000000000000000000000000600082015250565b600061342f600f836125d0565b915061343a826133f9565b602082019050919050565b6000602082019050818103600083015261345e81613422565b9050919050565b600081519050919050565b600082825260208201905092915050565b600061348c82613465565b6134968185613470565b93506134a68185602086016125e1565b6134af8161260b565b840191505092915050565b60006080820190506134cf60008301876126a9565b6134dc60208301866126a9565b6134e96040830185612950565b81810360608301526134fb8184613481565b905095945050505050565b60008151905061351581612441565b92915050565b6000602082840312156135315761353061240b565b5b600061353f84828501613506565b91505092915050565b7f4e487b7100000000000000000000000000000000000000000000000000000000600052601260045260246000fd5b600060408201905061358c60008301856126a9565b6135996020830184612950565b939250505056fea2646970667358221220747869e42b4643768577bef5b099b01e41eee7584c5f268bdc0828e86a9d765b64736f6c63430008140033a26469706673582212201d72f56ff346fdcf97558968d1f576a11fcf16ba84ef1027a52c89e8fb7b17d764736f6c63430008140033",
  "linkReferences": {},
  "deployedLinkReferences": {}
}