{
  "_format": "hh-sol-artifact-1",
  "contractName": "SBTFactory",
  "sourceName": "contracts/SBTFactory.sol",
  "abi": [
    {
      "inputs": [],
      "stateMutability": "nonpayable",
      "type": "constructor"
    },
    {
      "inputs": [
        {
          "internalType": "address",
          "name": "target",
          "type": "address"
        }
      ],
      "name": "AddressEmptyCode",
      "type": "error"
    },
    {
      "inputs": [
        {
          "internalType": "address",
          "name": "implementation",
          "type": "address"
        }
      ],
      "name": "ERC1967InvalidImplementation",
      "type": "error"
    },
    {
      "inputs": [],
      "name": "ERC1967NonPayable",
      "type": "error"
    },
    {
      "inputs": [],
      "name": "FailedInnerCall",
      "type": "error"
    },
    {
      "inputs": [],
      "name": "InvalidInitialization",
      "type": "error"
    },
    {
      "inputs": [],
      "name": "NotInitializing",
      "type": "error"
    },
    {
      "inputs": [
        {
          "internalType": "address",
          "name": "owner",
          "type": "address"
        }
      ],
      "name": "OwnableInvalidOwner",
      "type": "error"
    },
    {
      "inputs": [
        {
          "internalType": "address",
          "name": "account",
          "type": "address"
        }
      ],
      "name": "OwnableUnauthorizedAccount",
      "type": "error"
    },
    {
      "inputs": [],
      "name": "UUPSUnauthorizedCallContext",
      "type": "error"
    },
    {
      "inputs": [
        {
          "internalType": "bytes32",
          "name": "slot",
          "type": "bytes32"
        }
      ],
      "name": "UUPSUnsupportedProxiableUUID",
      "type": "error"
    },
    {
      "anonymous": false,
      "inputs": [
        {
          "indexed": false,
          "internalType": "uint64",
          "name": "version",
          "type": "uint64"
        }
      ],
      "name": "Initialized",
      "type": "event"
    },
    {
      "anonymous": false,
      "inputs": [
        {
          "indexed": true,
          "internalType": "address",
          "name": "previousOwner",
          "type": "address"
        },
        {
          "indexed": true,
          "internalType": "address",
          "name": "newOwner",
          "type": "address"
        }
      ],
      "name": "OwnershipTransferred",
      "type": "event"
    },
    {
      "anonymous": false,
      "inputs": [
        {
          "indexed": false,
          "internalType": "address",
          "name": "sbtAddress",
          "type": "address"
        },
        {
          "indexed": false,
          "internalType": "string",
          "name": "name",
          "type": "string"
        },
        {
          "indexed": false,
          "internalType": "string",
          "name": "symbol",
          "type": "string"
        },
        {
          "indexed": false,
          "internalType": "uint256",
          "name": "maxSupply",
          "type": "uint256"
        },
        {
          "indexed": false,
          "internalType": "enum IERC5484.BurnAuth",
          "name": "defaultBurnAuth",
          "type": "uint8"
        },
        {
          "indexed": false,
          "internalType": "string",
          "name": "image",
          "type": "string"
        },
        {
          "indexed": false,
          "internalType": "string",
          "name": "description",
          "type": "string"
        }
      ],
      "name": "SBTCreated",
      "type": "event"
    },
    {
      "anonymous": false,
      "inputs": [
        {
          "indexed": true,
          "internalType": "address",
          "name": "implementation",
          "type": "address"
        }
      ],
      "name": "Upgraded",
      "type": "event"
    },
    {
      "inputs": [],
      "name": "UPGRADE_INTERFACE_VERSION",
      "outputs": [
        {
          "internalType": "string",
          "name": "",
          "type": "string"
        }
      ],
      "stateMutability": "view",
      "type": "function"
    },
    {
      "inputs": [
        {
          "internalType": "string",
          "name": "name",
          "type": "string"
        },
        {
          "internalType": "string",
          "name": "symbol",
          "type": "string"
        },
        {
          "internalType": "string",
          "name": "baseURI",
          "type": "string"
        },
        {
          "internalType": "uint256",
          "name": "maxSupply",
          "type": "uint256"
        },
        {
          "internalType": "enum IERC5484.BurnAuth",
          "name": "defaultBurnAuth",
          "type": "uint8"
        },
        {
          "internalType": "string",
          "name": "image",
          "type": "string"
        },
        {
          "internalType": "string",
          "name": "description",
          "type": "string"
        }
      ],
      "name": "createMembershipSBT",
      "outputs": [
        {
          "internalType": "address",
          "name": "",
          "type": "address"
        }
      ],
      "stateMutability": "payable",
      "type": "function"
    },
    {
      "inputs": [],
      "name": "creationFee",
      "outputs": [
        {
          "internalType": "uint256",
          "name": "",
          "type": "uint256"
        }
      ],
      "stateMutability": "view",
      "type": "function"
    },
    {
      "inputs": [],
      "name": "initialize",
      "outputs": [],
      "stateMutability": "nonpayable",
      "type": "function"
    },
    {
      "inputs": [],
      "name": "owner",
      "outputs": [
        {
          "internalType": "address",
          "name": "",
          "type": "address"
        }
      ],
      "stateMutability": "view",
      "type": "function"
    },
    {
      "inputs": [],
      "name": "proxiableUUID",
      "outputs": [
        {
          "internalType": "bytes32",
          "name": "",
          "type": "bytes32"
        }
      ],
      "stateMutability": "view",
      "type": "function"
    },
    {
      "inputs": [],
      "name": "renounceOwnership",
      "outputs": [],
      "stateMutability": "nonpayable",
      "type": "function"
    },
    {
      "inputs": [
        {
          "internalType": "uint256",
          "name": "_creationFee",
          "type": "uint256"
        }
      ],
      "name": "setCreationFee",
      "outputs": [],
      "stateMutability": "nonpayable",
      "type": "function"
    },
    {
      "inputs": [
        {
          "internalType": "address",
          "name": "newOwner",
          "type": "address"
        }
      ],
      "name": "transferOwnership",
      "outputs": [],
      "stateMutability": "nonpayable",
      "type": "function"
    },
    {
      "inputs": [
        {
          "internalType": "address",
          "name": "newImplementation",
          "type": "address"
        },
        {
          "internalType": "bytes",
          "name": "data",
          "type": "bytes"
        }
      ],
      "name": "upgradeToAndCall",
      "outputs": [],
      "stateMutability": "payable",
      "type": "function"
    }
  ],
  "bytecode": "0x60a06040523073ffffffffffffffffffffffffffffffffffffffff1660809073ffffffffffffffffffffffffffffffffffffffff168152503480156200004457600080fd5b50620000556200005b60201b60201c565b620001cf565b60006200006d6200016560201b60201c565b90508060000160089054906101000a900460ff1615620000b9576040517ff92ee8a900000000000000000000000000000000000000000000000000000000815260040160405180910390fd5b67ffffffffffffffff80168160000160009054906101000a900467ffffffffffffffff1667ffffffffffffffff1614620001625767ffffffffffffffff8160000160006101000a81548167ffffffffffffffff021916908367ffffffffffffffff1602179055507fc7f505b2f371ae2175ee4913f4499e1f2633a7b5936321eed1cdaeb6115181d267ffffffffffffffff604051620001599190620001b2565b60405180910390a15b50565b60007ff0c57e16840df040f15088dc2f81fe391c3923bec73e23a9662efc9c229c6a00905090565b600067ffffffffffffffff82169050919050565b620001ac816200018d565b82525050565b6000602082019050620001c96000830184620001a1565b92915050565b6080516156f5620001f96000396000818161066c015281816106c2015261088d01526156f56000f3fe6080604052600436106200009e5760003560e01c8063ad3cb1cc1162000061578063ad3cb1cc1462000157578063b7d862251462000187578063d5753ba314620001b5578063dce0b4e414620001eb578063f2fde38b146200021b576200009e565b80634f1ef28614620000a357806352d1902d14620000c3578063715018a614620000f35780638129fc1c146200010d5780638da5cb5b1462000127575b600080fd5b620000c16004803603810190620000bb919062001129565b62000249565b005b348015620000d057600080fd5b50620000db6200026e565b604051620000ea9190620011aa565b60405180910390f35b3480156200010057600080fd5b506200010b620002a3565b005b3480156200011a57600080fd5b5062000125620002bb565b005b3480156200013457600080fd5b506200013f6200046d565b6040516200014e9190620011d8565b60405180910390f35b3480156200016457600080fd5b506200016f620004a7565b6040516200017e91906200127e565b60405180910390f35b3480156200019457600080fd5b50620001b36004803603810190620001ad9190620012dd565b620004e0565b005b620001d36004803603810190620001cd9190620013eb565b620004f4565b604051620001e29190620011d8565b60405180910390f35b348015620001f857600080fd5b5062000203620005d7565b6040516200021291906200154a565b60405180910390f35b3480156200022857600080fd5b5062000247600480360381019062000241919062001567565b620005dd565b005b620002536200066a565b6200025e8262000754565b6200026a828262000761565b5050565b60006200027a6200088b565b7f360894a13ba1a3210667c828492db98dca3e2076cc3735a920a3ca505d382bbc60001b905090565b620002ad62000913565b620002b96000620009a3565b565b6000620002c762000a7c565b905060008160000160089054906101000a900460ff1615905060008260000160009054906101000a900467ffffffffffffffff1690506000808267ffffffffffffffff16148015620003165750825b9050600060018367ffffffffffffffff161480156200034c575060003073ffffffffffffffffffffffffffffffffffffffff163b145b9050811580156200035b575080155b1562000393576040517ff92ee8a900000000000000000000000000000000000000000000000000000000815260040160405180910390fd5b60018560000160006101000a81548167ffffffffffffffff021916908367ffffffffffffffff1602179055508315620003e45760018560000160086101000a81548160ff0219169083151502179055505b620003ef3362000aa4565b620003f962000abc565b662386f26fc100006000819055508315620004665760008560000160086101000a81548160ff0219169083151502179055507fc7f505b2f371ae2175ee4913f4499e1f2633a7b5936321eed1cdaeb6115181d260016040516200045d9190620015fa565b60405180910390a15b5050505050565b6000806200047a62000ac8565b90508060000160009054906101000a900473ffffffffffffffffffffffffffffffffffffffff1691505090565b6040518060400160405280600581526020017f352e302e3000000000000000000000000000000000000000000000000000000081525081565b620004ea62000913565b8060008190555050565b6000805434146200053c576040517f08c379a0000000000000000000000000000000000000000000000000000000008152600401620005339062001667565b60405180910390fd5b6000888888888833604051620005529062000f40565b620005639695949392919062001709565b604051809103906000f08015801562000580573d6000803e3d6000fd5b5090507f936d6cbde992288dfdf2c7cc67a39f2c76f4c3b5e9bc2866f85d607267646b4f818a8a89898989604051620005c097969594939291906200178b565b60405180910390a180915050979650505050505050565b60005481565b620005e762000913565b600073ffffffffffffffffffffffffffffffffffffffff168173ffffffffffffffffffffffffffffffffffffffff16036200065c5760006040517f1e4fbdf7000000000000000000000000000000000000000000000000000000008152600401620006539190620011d8565b60405180910390fd5b6200066781620009a3565b50565b7f000000000000000000000000000000000000000000000000000000000000000073ffffffffffffffffffffffffffffffffffffffff163073ffffffffffffffffffffffffffffffffffffffff1614806200071a57507f000000000000000000000000000000000000000000000000000000000000000073ffffffffffffffffffffffffffffffffffffffff166200070162000af0565b73ffffffffffffffffffffffffffffffffffffffff1614155b1562000752576040517fe07c8dba00000000000000000000000000000000000000000000000000000000815260040160405180910390fd5b565b6200075e62000913565b50565b8173ffffffffffffffffffffffffffffffffffffffff166352d1902d6040518163ffffffff1660e01b8152600401602060405180830381865afa925050508015620007cc57506040513d601f19601f82011682018060405250810190620007c9919062001855565b60015b6200081057816040517f4c9c8ce3000000000000000000000000000000000000000000000000000000008152600401620008079190620011d8565b60405180910390fd5b7f360894a13ba1a3210667c828492db98dca3e2076cc3735a920a3ca505d382bbc60001b81146200087a57806040517faa1d49a4000000000000000000000000000000000000000000000000000000008152600401620008719190620011aa565b60405180910390fd5b62000886838362000b49565b505050565b7f000000000000000000000000000000000000000000000000000000000000000073ffffffffffffffffffffffffffffffffffffffff163073ffffffffffffffffffffffffffffffffffffffff161462000911576040517fe07c8dba00000000000000000000000000000000000000000000000000000000815260040160405180910390fd5b565b6200091d62000bc4565b73ffffffffffffffffffffffffffffffffffffffff166200093d6200046d565b73ffffffffffffffffffffffffffffffffffffffff1614620009a1576200096362000bc4565b6040517f118cdaa7000000000000000000000000000000000000000000000000000000008152600401620009989190620011d8565b60405180910390fd5b565b6000620009af62000ac8565b905060008160000160009054906101000a900473ffffffffffffffffffffffffffffffffffffffff169050828260000160006101000a81548173ffffffffffffffffffffffffffffffffffffffff021916908373ffffffffffffffffffffffffffffffffffffffff1602179055508273ffffffffffffffffffffffffffffffffffffffff168173ffffffffffffffffffffffffffffffffffffffff167f8be0079c531659141344cd1fd0a4f28419497f9722a3daafe3b4186f6b6457e060405160405180910390a3505050565b60007ff0c57e16840df040f15088dc2f81fe391c3923bec73e23a9662efc9c229c6a00905090565b62000aae62000bcc565b62000ab98162000c0f565b50565b62000ac662000bcc565b565b60007f9016d09d72d40fdae2fd8ceac6b6234c7706214fd39c1cd1e609a0528c199300905090565b600062000b207f360894a13ba1a3210667c828492db98dca3e2076cc3735a920a3ca505d382bbc60001b62000c9c565b60000160009054906101000a900473ffffffffffffffffffffffffffffffffffffffff16905090565b62000b548262000ca6565b8173ffffffffffffffffffffffffffffffffffffffff167fbc7cd75a20ee27fd9adebab32041f755214dbc6bffa90cc0225b39da2e5c2d3b60405160405180910390a260008151111562000bb55762000bae828262000d78565b5062000bc0565b62000bbf62000e02565b5b5050565b600033905090565b62000bd662000e40565b62000c0d576040517fd7e6bcf800000000000000000000000000000000000000000000000000000000815260040160405180910390fd5b565b62000c1962000bcc565b600073ffffffffffffffffffffffffffffffffffffffff168173ffffffffffffffffffffffffffffffffffffffff160362000c8e5760006040517f1e4fbdf700000000000000000000000000000000000000000000000000000000815260040162000c859190620011d8565b60405180910390fd5b62000c9981620009a3565b50565b6000819050919050565b60008173ffffffffffffffffffffffffffffffffffffffff163b0362000d0557806040517f4c9c8ce300000000000000000000000000000000000000000000000000000000815260040162000cfc9190620011d8565b60405180910390fd5b8062000d347f360894a13ba1a3210667c828492db98dca3e2076cc3735a920a3ca505d382bbc60001b62000c9c565b60000160006101000a81548173ffffffffffffffffffffffffffffffffffffffff021916908373ffffffffffffffffffffffffffffffffffffffff16021790555050565b60606000808473ffffffffffffffffffffffffffffffffffffffff168460405162000da49190620018d4565b600060405180830381855af49150503d806000811462000de1576040519150601f19603f3d011682016040523d82523d6000602084013e62000de6565b606091505b509150915062000df885838362000e62565b9250505092915050565b600034111562000e3e576040517fb398979f00000000000000000000000000000000000000000000000000000000815260040160405180910390fd5b565b600062000e4c62000a7c565b60000160089054906101000a900460ff16905090565b60608262000e7b5762000e758262000efa565b62000ef2565b6000825114801562000ea4575060008473ffffffffffffffffffffffffffffffffffffffff163b145b1562000ee957836040517f9996b31500000000000000000000000000000000000000000000000000000000815260040162000ee09190620011d8565b60405180910390fd5b81905062000ef3565b5b9392505050565b60008151111562000f0e5780518082602001fd5b6040517f1425ea4200000000000000000000000000000000000000000000000000000000815260040160405180910390fd5b613dd280620018ee83390190565b6000604051905090565b600080fd5b600080fd5b600073ffffffffffffffffffffffffffffffffffffffff82169050919050565b600062000f8f8262000f62565b9050919050565b62000fa18162000f82565b811462000fad57600080fd5b50565b60008135905062000fc18162000f96565b92915050565b600080fd5b600080fd5b6000601f19601f8301169050919050565b7f4e487b7100000000000000000000000000000000000000000000000000000000600052604160045260246000fd5b6200101c8262000fd1565b810181811067ffffffffffffffff821117156200103e576200103d62000fe2565b5b80604052505050565b60006200105362000f4e565b905062001061828262001011565b919050565b600067ffffffffffffffff82111562001084576200108362000fe2565b5b6200108f8262000fd1565b9050602081019050919050565b82818337600083830152505050565b6000620010c2620010bc8462001066565b62001047565b905082815260208101848484011115620010e157620010e062000fcc565b5b620010ee8482856200109c565b509392505050565b600082601f8301126200110e576200110d62000fc7565b5b813562001120848260208601620010ab565b91505092915050565b6000806040838503121562001143576200114262000f58565b5b6000620011538582860162000fb0565b925050602083013567ffffffffffffffff81111562001177576200117662000f5d565b5b6200118585828601620010f6565b9150509250929050565b6000819050919050565b620011a4816200118f565b82525050565b6000602082019050620011c1600083018462001199565b92915050565b620011d28162000f82565b82525050565b6000602082019050620011ef6000830184620011c7565b92915050565b600081519050919050565b600082825260208201905092915050565b60005b838110156200123157808201518184015260208101905062001214565b60008484015250505050565b60006200124a82620011f5565b62001256818562001200565b93506200126881856020860162001211565b620012738162000fd1565b840191505092915050565b600060208201905081810360008301526200129a81846200123d565b905092915050565b6000819050919050565b620012b781620012a2565b8114620012c357600080fd5b50565b600081359050620012d781620012ac565b92915050565b600060208284031215620012f657620012f562000f58565b5b60006200130684828501620012c6565b91505092915050565b600067ffffffffffffffff8211156200132d576200132c62000fe2565b5b620013388262000fd1565b9050602081019050919050565b60006200135c62001356846200130f565b62001047565b9050828152602081018484840111156200137b576200137a62000fcc565b5b620013888482856200109c565b509392505050565b600082601f830112620013a857620013a762000fc7565b5b8135620013ba84826020860162001345565b91505092915050565b60048110620013d157600080fd5b50565b600081359050620013e581620013c3565b92915050565b600080600080600080600060e0888a0312156200140d576200140c62000f58565b5b600088013567ffffffffffffffff8111156200142e576200142d62000f5d565b5b6200143c8a828b0162001390565b975050602088013567ffffffffffffffff81111562001460576200145f62000f5d565b5b6200146e8a828b0162001390565b965050604088013567ffffffffffffffff81111562001492576200149162000f5d565b5b620014a08a828b0162001390565b9550506060620014b38a828b01620012c6565b9450506080620014c68a828b01620013d4565b93505060a088013567ffffffffffffffff811115620014ea57620014e962000f5d565b5b620014f88a828b0162001390565b92505060c088013567ffffffffffffffff8111156200151c576200151b62000f5d565b5b6200152a8a828b0162001390565b91505092959891949750929550565b6200154481620012a2565b82525050565b600060208201905062001561600083018462001539565b92915050565b60006020828403121562001580576200157f62000f58565b5b6000620015908482850162000fb0565b91505092915050565b6000819050919050565b600067ffffffffffffffff82169050919050565b6000819050919050565b6000620015e2620015dc620015d68462001599565b620015b7565b620015a3565b9050919050565b620015f481620015c1565b82525050565b6000602082019050620016116000830184620015e9565b92915050565b7f496e636f72726563742066656500000000000000000000000000000000000000600082015250565b60006200164f600d8362001200565b91506200165c8262001617565b602082019050919050565b60006020820190508181036000830152620016828162001640565b9050919050565b7f4e487b7100000000000000000000000000000000000000000000000000000000600052602160045260246000fd5b60048110620016cc57620016cb62001689565b5b50565b6000819050620016df82620016b8565b919050565b6000620016f182620016cf565b9050919050565b6200170381620016e4565b82525050565b600060c08201905081810360008301526200172581896200123d565b905081810360208301526200173b81886200123d565b905081810360408301526200175181876200123d565b905062001762606083018662001539565b620017716080830185620016f8565b6200178060a0830184620011c7565b979650505050505050565b600060e082019050620017a2600083018a620011c7565b8181036020830152620017b681896200123d565b90508181036040830152620017cc81886200123d565b9050620017dd606083018762001539565b620017ec6080830186620016f8565b81810360a08301526200180081856200123d565b905081810360c08301526200181681846200123d565b905098975050505050505050565b6200182f816200118f565b81146200183b57600080fd5b50565b6000815190506200184f8162001824565b92915050565b6000602082840312156200186e576200186d62000f58565b5b60006200187e848285016200183e565b91505092915050565b600081519050919050565b600081905092915050565b6000620018aa8262001887565b620018b6818562001892565b9350620018c881856020860162001211565b80840191505092915050565b6000620018e282846200189d565b91508190509291505056fe60806040523480156200001157600080fd5b5060405162003dd238038062003dd283398181016040528101906200003791906200045a565b80868681600090816200004b919062000794565b5080600190816200005d919062000794565b505050600073ffffffffffffffffffffffffffffffffffffffff168173ffffffffffffffffffffffffffffffffffffffff1603620000d55760006040517f1e4fbdf7000000000000000000000000000000000000000000000000000000008152600401620000cc91906200088c565b60405180910390fd5b620000e6816200013960201b60201c565b508360079081620000f8919062000794565b508260088190555081600b60006101000a81548160ff02191690836003811115620001285762000127620008a9565b5b0217905550505050505050620008d8565b6000600660009054906101000a900473ffffffffffffffffffffffffffffffffffffffff16905081600660006101000a81548173ffffffffffffffffffffffffffffffffffffffff021916908373ffffffffffffffffffffffffffffffffffffffff1602179055508173ffffffffffffffffffffffffffffffffffffffff168173ffffffffffffffffffffffffffffffffffffffff167f8be0079c531659141344cd1fd0a4f28419497f9722a3daafe3b4186f6b6457e060405160405180910390a35050565b6000604051905090565b600080fd5b600080fd5b600080fd5b600080fd5b6000601f19601f8301169050919050565b7f4e487b7100000000000000000000000000000000000000000000000000000000600052604160045260246000fd5b62000268826200021d565b810181811067ffffffffffffffff821117156200028a57620002896200022e565b5b80604052505050565b60006200029f620001ff565b9050620002ad82826200025d565b919050565b600067ffffffffffffffff821115620002d057620002cf6200022e565b5b620002db826200021d565b9050602081019050919050565b60005b8381101562000308578082015181840152602081019050620002eb565b60008484015250505050565b60006200032b6200032584620002b2565b62000293565b9050828152602081018484840111156200034a576200034962000218565b5b62000357848285620002e8565b509392505050565b600082601f83011262000377576200037662000213565b5b81516200038984826020860162000314565b91505092915050565b6000819050919050565b620003a78162000392565b8114620003b357600080fd5b50565b600081519050620003c7816200039c565b92915050565b60048110620003db57600080fd5b50565b600081519050620003ef81620003cd565b92915050565b600073ffffffffffffffffffffffffffffffffffffffff82169050919050565b60006200042282620003f5565b9050919050565b620004348162000415565b81146200044057600080fd5b50565b600081519050620004548162000429565b92915050565b60008060008060008060c087890312156200047a576200047962000209565b5b600087015167ffffffffffffffff8111156200049b576200049a6200020e565b5b620004a989828a016200035f565b965050602087015167ffffffffffffffff811115620004cd57620004cc6200020e565b5b620004db89828a016200035f565b955050604087015167ffffffffffffffff811115620004ff57620004fe6200020e565b5b6200050d89828a016200035f565b94505060606200052089828a01620003b6565b93505060806200053389828a01620003de565b92505060a06200054689828a0162000443565b9150509295509295509295565b600081519050919050565b7f4e487b7100000000000000000000000000000000000000000000000000000000600052602260045260246000fd5b60006002820490506001821680620005a657607f821691505b602082108103620005bc57620005bb6200055e565b5b50919050565b60008190508160005260206000209050919050565b60006020601f8301049050919050565b600082821b905092915050565b600060088302620006267fffffffffffffffffffffffffffffffffffffffffffffffffffffffffffffffff82620005e7565b620006328683620005e7565b95508019841693508086168417925050509392505050565b6000819050919050565b6000620006756200066f620006698462000392565b6200064a565b62000392565b9050919050565b6000819050919050565b620006918362000654565b620006a9620006a0826200067c565b848454620005f4565b825550505050565b600090565b620006c0620006b1565b620006cd81848462000686565b505050565b5b81811015620006f557620006e9600082620006b6565b600181019050620006d3565b5050565b601f82111562000744576200070e81620005c2565b6200071984620005d7565b8101602085101562000729578190505b620007416200073885620005d7565b830182620006d2565b50505b505050565b600082821c905092915050565b6000620007696000198460080262000749565b1980831691505092915050565b600062000784838362000756565b9150826002028217905092915050565b6200079f8262000553565b67ffffffffffffffff811115620007bb57620007ba6200022e565b5b620007c782546200058d565b620007d4828285620006f9565b600060209050601f8311600181146200080c5760008415620007f7578287015190505b62000803858262000776565b86555062000873565b601f1984166200081c86620005c2565b60005b8281101562000846578489015182556001820191506020850194506020810190506200081f565b8683101562000866578489015162000862601f89168262000756565b8355505b6001600288020188555050505b505050505050565b620008868162000415565b82525050565b6000602082019050620008a360008301846200087b565b92915050565b7f4e487b7100000000000000000000000000000000000000000000000000000000600052602160045260246000fd5b6134ea80620008e86000396000f3fe608060405234801561001057600080fd5b50600436106101a95760003560e01c80636f8b44b0116100f9578063b88d4fde11610097578063dd46706411610071578063dd467064146104b4578063e985e9c5146104d0578063ef4595f014610500578063f2fde38b1461051c576101a9565b8063b88d4fde1461044a578063c87b56dd14610466578063d5abeb0114610496576101a9565b80638da5cb5b116100d35780638da5cb5b146103c257806395d89b41146103e0578063a22cb465146103fe578063b45a3c0e1461041a576101a9565b80636f8b44b01461036c57806370a0823114610388578063715018a6146103b8576101a9565b8063265522781161016657806342966c681161014057806342966c68146102e857806355f804b3146103045780636198e339146103205780636352211e1461033c576101a9565b8063265522781461029457806340d097c3146102b057806342842e0e146102cc576101a9565b806301ffc9a7146101ae5780630489b56f146101de57806306fdde031461020e578063081812fc1461022c578063095ea7b31461025c57806323b872dd14610278575b600080fd5b6101c860048036038101906101c39190612401565b610538565b6040516101d59190612449565b60405180910390f35b6101f860048036038101906101f3919061249a565b61061a565b604051610205919061253e565b60405180910390f35b610216610644565b60405161022391906125e9565b60405180910390f35b6102466004803603810190610241919061249a565b6106d6565b604051610253919061264c565b60405180910390f35b61027660048036038101906102719190612693565b6106f2565b005b610292600480360381019061028d91906126d3565b610708565b005b6102ae60048036038101906102a9919061286e565b61080a565b005b6102ca60048036038101906102c591906128b7565b610858565b005b6102e660048036038101906102e191906126d3565b610a00565b005b61030260048036038101906102fd919061249a565b610a20565b005b61031e60048036038101906103199190612999565b610cdd565b005b61033a6004803603810190610335919061249a565b610d2f565b005b6103566004803603810190610351919061249a565b610d9d565b604051610363919061264c565b60405180910390f35b6103866004803603810190610381919061249a565b610daf565b005b6103a2600480360381019061039d91906128b7565b610df8565b6040516103af91906129f1565b60405180910390f35b6103c0610eb2565b005b6103ca610ec6565b6040516103d7919061264c565b60405180910390f35b6103e8610ef0565b6040516103f591906125e9565b60405180910390f35b61041860048036038101906104139190612a38565b610f82565b005b610434600480360381019061042f919061249a565b610f98565b6040516104419190612449565b60405180910390f35b610464600480360381019061045f9190612b19565b610fc2565b005b610480600480360381019061047b919061249a565b610fdf565b60405161048d91906125e9565b60405180910390f35b61049e611048565b6040516104ab91906129f1565b60405180910390f35b6104ce60048036038101906104c9919061249a565b61104e565b005b6104ea60048036038101906104e59190612b9c565b6110bc565b6040516104f79190612449565b60405180910390f35b61051a60048036038101906105159190612c01565b611150565b005b610536600480360381019061053191906128b7565b6111d0565b005b60007fb45a3c0e000000000000000000000000000000000000000000000000000000007bffffffffffffffffffffffffffffffffffffffffffffffffffffffff1916827bffffffffffffffffffffffffffffffffffffffffffffffffffffffff1916148061060357507f0489b56f000000000000000000000000000000000000000000000000000000007bffffffffffffffffffffffffffffffffffffffffffffffffffffffff1916827bffffffffffffffffffffffffffffffffffffffffffffffffffffffff1916145b80610613575061061282611256565b5b9050919050565b6000600c600083815260200190815260200160002060009054906101000a900460ff169050919050565b60606000805461065390612c70565b80601f016020809104026020016040519081016040528092919081815260200182805461067f90612c70565b80156106cc5780601f106106a1576101008083540402835291602001916106cc565b820191906000526020600020905b8154815290600101906020018083116106af57829003601f168201915b5050505050905090565b60006106e182611338565b506106eb826113c0565b9050919050565b61070482826106ff6113fd565b611405565b5050565b600073ffffffffffffffffffffffffffffffffffffffff168273ffffffffffffffffffffffffffffffffffffffff160361077a5760006040517f64a0ae92000000000000000000000000000000000000000000000000000000008152600401610771919061264c565b60405180910390fd5b600061078e83836107896113fd565b611417565b90508373ffffffffffffffffffffffffffffffffffffffff168173ffffffffffffffffffffffffffffffffffffffff1614610804578382826040517f64283d7b0000000000000000000000000000000000000000000000000000000081526004016107fb93929190612ca1565b60405180910390fd5b50505050565b6108126114ab565b60005b81518110156108545761084182828151811061083457610833612cd8565b5b6020026020010151610858565b808061084c90612d36565b915050610815565b5050565b6108606114ab565b600061086b82610df8565b146108ab576040517f08c379a00000000000000000000000000000000000000000000000000000000081526004016108a290612dca565b60405180910390fd5b600060085414806108bf5750600854600954105b6108fe576040517f08c379a00000000000000000000000000000000000000000000000000000000081526004016108f590612e36565b60405180910390fd5b60006009600081548092919061091390612d36565b919050559050600b60009054906101000a900460ff16600c600083815260200190815260200160002060006101000a81548160ff0219169083600381111561095e5761095d6124c7565b5b021790555061096d8282611532565b6109768161104e565b808273ffffffffffffffffffffffffffffffffffffffff163373ffffffffffffffffffffffffffffffffffffffff167f135ffb3383e06280e062ac5095bbf8faa98517161e596a2536bd98a9a8b64a88600c600086815260200190815260200160002060009054906101000a900460ff166040516109f4919061253e565b60405180910390a45050565b610a1b83838360405180602001604052806000815250610fc2565b505050565b6000600c600083815260200190815260200160002060009054906101000a900460ff16905060006003811115610a5957610a586124c7565b5b816003811115610a6c57610a6b6124c7565b5b03610ae7573373ffffffffffffffffffffffffffffffffffffffff16610a90610ec6565b73ffffffffffffffffffffffffffffffffffffffff1614610ae6576040517f08c379a0000000000000000000000000000000000000000000000000000000008152600401610add90612ea2565b60405180910390fd5b5b60016003811115610afb57610afa6124c7565b5b816003811115610b0e57610b0d6124c7565b5b03610b8a573373ffffffffffffffffffffffffffffffffffffffff16610b3383610d9d565b73ffffffffffffffffffffffffffffffffffffffff1614610b89576040517f08c379a0000000000000000000000000000000000000000000000000000000008152600401610b8090612f0e565b60405180910390fd5b5b60026003811115610b9e57610b9d6124c7565b5b816003811115610bb157610bb06124c7565b5b03610c6a573373ffffffffffffffffffffffffffffffffffffffff16610bd5610ec6565b73ffffffffffffffffffffffffffffffffffffffff161480610c2a57503373ffffffffffffffffffffffffffffffffffffffff16610c1283610d9d565b73ffffffffffffffffffffffffffffffffffffffff16145b610c69576040517f08c379a0000000000000000000000000000000000000000000000000000000008152600401610c6090612f7a565b60405180910390fd5b5b600380811115610c7d57610c7c6124c7565b5b816003811115610c9057610c8f6124c7565b5b03610cd0576040517f08c379a0000000000000000000000000000000000000000000000000000000008152600401610cc790612fe6565b60405180910390fd5b610cd982611550565b5050565b610ce56114ab565b8060079081610cf491906131b2565b507ff9c7803e94e0d3c02900d8a90893a6d5e90dd04d32a4cfe825520f82bf9f32f681604051610d2491906125e9565b60405180910390a150565b610d376114ab565b6000600a600083815260200190815260200160002060006101000a81548160ff0219169083151502179055507ff27b6ce5b2f5e68ddb2fd95a8a909d4ecf1daaac270935fff052feacb24f184281604051610d9291906129f1565b60405180910390a150565b6000610da882611338565b9050919050565b610db76114ab565b806008819055507facc639f1ff310faf48650d02a82bd24c924e45a5050fc931245096ac57c309d981604051610ded91906129f1565b60405180910390a150565b60008073ffffffffffffffffffffffffffffffffffffffff168273ffffffffffffffffffffffffffffffffffffffff1603610e6b5760006040517f89c62b64000000000000000000000000000000000000000000000000000000008152600401610e62919061264c565b60405180910390fd5b600360008373ffffffffffffffffffffffffffffffffffffffff1673ffffffffffffffffffffffffffffffffffffffff168152602001908152602001600020549050919050565b610eba6114ab565b610ec460006115d6565b565b6000600660009054906101000a900473ffffffffffffffffffffffffffffffffffffffff16905090565b606060018054610eff90612c70565b80601f0160208091040260200160405190810160405280929190818152602001828054610f2b90612c70565b8015610f785780601f10610f4d57610100808354040283529160200191610f78565b820191906000526020600020905b815481529060010190602001808311610f5b57829003601f168201915b5050505050905090565b610f94610f8d6113fd565b838361169c565b5050565b6000600a600083815260200190815260200160002060009054906101000a900460ff169050919050565b610fcd848484610708565b610fd98484848461180b565b50505050565b6060610fea82611338565b506000610ff56119c2565b905060008151116110155760405180602001604052806000815250611040565b8061101f84611a54565b6040516020016110309291906132c0565b6040516020818303038152906040525b915050919050565b60085481565b6110566114ab565b6001600a600083815260200190815260200160002060006101000a81548160ff0219169083151502179055507f032bc66be43dbccb7487781d168eb7bda224628a3b2c3388bdf69b532a3a1611816040516110b191906129f1565b60405180910390a150565b6000600560008473ffffffffffffffffffffffffffffffffffffffff1673ffffffffffffffffffffffffffffffffffffffff16815260200190815260200160002060008373ffffffffffffffffffffffffffffffffffffffff1673ffffffffffffffffffffffffffffffffffffffff16815260200190815260200160002060009054906101000a900460ff16905092915050565b6111586114ab565b80600c600084815260200190815260200160002060006101000a81548160ff0219169083600381111561118e5761118d6124c7565b5b02179055507f8ecc1f4406cebdabc0a950a3467ca062dbbe5865442a2612748acf41ae2c984882826040516111c49291906132e4565b60405180910390a15050565b6111d86114ab565b600073ffffffffffffffffffffffffffffffffffffffff168173ffffffffffffffffffffffffffffffffffffffff160361124a5760006040517f1e4fbdf7000000000000000000000000000000000000000000000000000000008152600401611241919061264c565b60405180910390fd5b611253816115d6565b50565b60007f80ac58cd000000000000000000000000000000000000000000000000000000007bffffffffffffffffffffffffffffffffffffffffffffffffffffffff1916827bffffffffffffffffffffffffffffffffffffffffffffffffffffffff1916148061132157507f5b5e139f000000000000000000000000000000000000000000000000000000007bffffffffffffffffffffffffffffffffffffffffffffffffffffffff1916827bffffffffffffffffffffffffffffffffffffffffffffffffffffffff1916145b80611331575061133082611b22565b5b9050919050565b60008061134483611b8c565b9050600073ffffffffffffffffffffffffffffffffffffffff168173ffffffffffffffffffffffffffffffffffffffff16036113b757826040517f7e2732890000000000000000000000000000000000000000000000000000000081526004016113ae91906129f1565b60405180910390fd5b80915050919050565b60006004600083815260200190815260200160002060009054906101000a900473ffffffffffffffffffffffffffffffffffffffff169050919050565b600033905090565b6114128383836001611bc9565b505050565b600061142283610f98565b1561149757600073ffffffffffffffffffffffffffffffffffffffff168473ffffffffffffffffffffffffffffffffffffffff1614611496576040517f08c379a000000000000000000000000000000000000000000000000000000000815260040161148d90613359565b60405180910390fd5b5b6114a2848484611d8e565b90509392505050565b6114b36113fd565b73ffffffffffffffffffffffffffffffffffffffff166114d1610ec6565b73ffffffffffffffffffffffffffffffffffffffff1614611530576114f46113fd565b6040517f118cdaa7000000000000000000000000000000000000000000000000000000008152600401611527919061264c565b60405180910390fd5b565b61154c828260405180602001604052806000815250611fa8565b5050565b600061155f6000836000611417565b9050600073ffffffffffffffffffffffffffffffffffffffff168173ffffffffffffffffffffffffffffffffffffffff16036115d257816040517f7e2732890000000000000000000000000000000000000000000000000000000081526004016115c991906129f1565b60405180910390fd5b5050565b6000600660009054906101000a900473ffffffffffffffffffffffffffffffffffffffff16905081600660006101000a81548173ffffffffffffffffffffffffffffffffffffffff021916908373ffffffffffffffffffffffffffffffffffffffff1602179055508173ffffffffffffffffffffffffffffffffffffffff168173ffffffffffffffffffffffffffffffffffffffff167f8be0079c531659141344cd1fd0a4f28419497f9722a3daafe3b4186f6b6457e060405160405180910390a35050565b600073ffffffffffffffffffffffffffffffffffffffff168273ffffffffffffffffffffffffffffffffffffffff160361170d57816040517f5b08ba18000000000000000000000000000000000000000000000000000000008152600401611704919061264c565b60405180910390fd5b80600560008573ffffffffffffffffffffffffffffffffffffffff1673ffffffffffffffffffffffffffffffffffffffff16815260200190815260200160002060008473ffffffffffffffffffffffffffffffffffffffff1673ffffffffffffffffffffffffffffffffffffffff16815260200190815260200160002060006101000a81548160ff0219169083151502179055508173ffffffffffffffffffffffffffffffffffffffff168373ffffffffffffffffffffffffffffffffffffffff167f17307eab39ab6107e8899845ad3d59bd9653f200f220920489ca2b5937696c31836040516117fe9190612449565b60405180910390a3505050565b60008373ffffffffffffffffffffffffffffffffffffffff163b11156119bc578273ffffffffffffffffffffffffffffffffffffffff1663150b7a0261184f6113fd565b8685856040518563ffffffff1660e01b815260040161187194939291906133ce565b6020604051808303816000875af19250505080156118ad57506040513d601f19601f820116820180604052508101906118aa919061342f565b60015b611931573d80600081146118dd576040519150601f19603f3d011682016040523d82523d6000602084013e6118e2565b606091505b50600081510361192957836040517f64a0ae92000000000000000000000000000000000000000000000000000000008152600401611920919061264c565b60405180910390fd5b805181602001fd5b63150b7a0260e01b7bffffffffffffffffffffffffffffffffffffffffffffffffffffffff1916817bffffffffffffffffffffffffffffffffffffffffffffffffffffffff1916146119ba57836040517f64a0ae920000000000000000000000000000000000000000000000000000000081526004016119b1919061264c565b60405180910390fd5b505b50505050565b6060600780546119d190612c70565b80601f01602080910402602001604051908101604052809291908181526020018280546119fd90612c70565b8015611a4a5780601f10611a1f57610100808354040283529160200191611a4a565b820191906000526020600020905b815481529060010190602001808311611a2d57829003601f168201915b5050505050905090565b606060006001611a6384611fc4565b01905060008167ffffffffffffffff811115611a8257611a8161272b565b5b6040519080825280601f01601f191660200182016040528015611ab45781602001600182028036833780820191505090505b509050600082602001820190505b600115611b17578080600190039150507f3031323334353637383961626364656600000000000000000000000000000000600a86061a8153600a8581611b0b57611b0a61345c565b5b04945060008503611ac2575b819350505050919050565b60007f01ffc9a7000000000000000000000000000000000000000000000000000000007bffffffffffffffffffffffffffffffffffffffffffffffffffffffff1916827bffffffffffffffffffffffffffffffffffffffffffffffffffffffff1916149050919050565b60006002600083815260200190815260200160002060009054906101000a900473ffffffffffffffffffffffffffffffffffffffff169050919050565b8080611c025750600073ffffffffffffffffffffffffffffffffffffffff168273ffffffffffffffffffffffffffffffffffffffff1614155b15611d36576000611c1284611338565b9050600073ffffffffffffffffffffffffffffffffffffffff168373ffffffffffffffffffffffffffffffffffffffff1614158015611c7d57508273ffffffffffffffffffffffffffffffffffffffff168173ffffffffffffffffffffffffffffffffffffffff1614155b8015611c905750611c8e81846110bc565b155b15611cd257826040517fa9fbf51f000000000000000000000000000000000000000000000000000000008152600401611cc9919061264c565b60405180910390fd5b8115611d3457838573ffffffffffffffffffffffffffffffffffffffff168273ffffffffffffffffffffffffffffffffffffffff167f8c5be1e5ebec7d5bd14f71427d1e84f3dd0314c0f7b2291e5b200ac8c7c3b92560405160405180910390a45b505b836004600085815260200190815260200160002060006101000a81548173ffffffffffffffffffffffffffffffffffffffff021916908373ffffffffffffffffffffffffffffffffffffffff16021790555050505050565b600080611d9a84611b8c565b9050600073ffffffffffffffffffffffffffffffffffffffff168373ffffffffffffffffffffffffffffffffffffffff1614611ddc57611ddb818486612117565b5b600073ffffffffffffffffffffffffffffffffffffffff168173ffffffffffffffffffffffffffffffffffffffff1614611e6d57611e1e600085600080611bc9565b6001600360008373ffffffffffffffffffffffffffffffffffffffff1673ffffffffffffffffffffffffffffffffffffffff168152602001908152602001600020600082825403925050819055505b600073ffffffffffffffffffffffffffffffffffffffff168573ffffffffffffffffffffffffffffffffffffffff1614611ef0576001600360008773ffffffffffffffffffffffffffffffffffffffff1673ffffffffffffffffffffffffffffffffffffffff168152602001908152602001600020600082825401925050819055505b846002600086815260200190815260200160002060006101000a81548173ffffffffffffffffffffffffffffffffffffffff021916908373ffffffffffffffffffffffffffffffffffffffff160217905550838573ffffffffffffffffffffffffffffffffffffffff168273ffffffffffffffffffffffffffffffffffffffff167fddf252ad1be2c89b69c2b068fc378daa952ba7f163c4a11628f55a4df523b3ef60405160405180910390a4809150509392505050565b611fb283836121db565b611fbf600084848461180b565b505050565b600080600090507a184f03e93ff9f4daa797ed6e38ed64bf6a1f0100000000000000008310612022577a184f03e93ff9f4daa797ed6e38ed64bf6a1f01000000000000000083816120185761201761345c565b5b0492506040810190505b6d04ee2d6d415b85acef8100000000831061205f576d04ee2d6d415b85acef810000000083816120555761205461345c565b5b0492506020810190505b662386f26fc10000831061208e57662386f26fc1000083816120845761208361345c565b5b0492506010810190505b6305f5e10083106120b7576305f5e10083816120ad576120ac61345c565b5b0492506008810190505b61271083106120dc5761271083816120d2576120d161345c565b5b0492506004810190505b606483106120ff57606483816120f5576120f461345c565b5b0492506002810190505b600a831061210e576001810190505b80915050919050565b6121228383836122d4565b6121d657600073ffffffffffffffffffffffffffffffffffffffff168373ffffffffffffffffffffffffffffffffffffffff160361219757806040517f7e27328900000000000000000000000000000000000000000000000000000000815260040161218e91906129f1565b60405180910390fd5b81816040517f177e802f0000000000000000000000000000000000000000000000000000000081526004016121cd92919061348b565b60405180910390fd5b505050565b600073ffffffffffffffffffffffffffffffffffffffff168273ffffffffffffffffffffffffffffffffffffffff160361224d5760006040517f64a0ae92000000000000000000000000000000000000000000000000000000008152600401612244919061264c565b60405180910390fd5b600061225b83836000611417565b9050600073ffffffffffffffffffffffffffffffffffffffff168173ffffffffffffffffffffffffffffffffffffffff16146122cf5760006040517f73c6ac6e0000000000000000000000000000000000000000000000000000000081526004016122c6919061264c565b60405180910390fd5b505050565b60008073ffffffffffffffffffffffffffffffffffffffff168373ffffffffffffffffffffffffffffffffffffffff161415801561238c57508273ffffffffffffffffffffffffffffffffffffffff168473ffffffffffffffffffffffffffffffffffffffff16148061234d575061234c84846110bc565b5b8061238b57508273ffffffffffffffffffffffffffffffffffffffff16612373836113c0565b73ffffffffffffffffffffffffffffffffffffffff16145b5b90509392505050565b6000604051905090565b600080fd5b600080fd5b60007fffffffff0000000000000000000000000000000000000000000000000000000082169050919050565b6123de816123a9565b81146123e957600080fd5b50565b6000813590506123fb816123d5565b92915050565b6000602082840312156124175761241661239f565b5b6000612425848285016123ec565b91505092915050565b60008115159050919050565b6124438161242e565b82525050565b600060208201905061245e600083018461243a565b92915050565b6000819050919050565b61247781612464565b811461248257600080fd5b50565b6000813590506124948161246e565b92915050565b6000602082840312156124b0576124af61239f565b5b60006124be84828501612485565b91505092915050565b7f4e487b7100000000000000000000000000000000000000000000000000000000600052602160045260246000fd5b60048110612507576125066124c7565b5b50565b6000819050612518826124f6565b919050565b60006125288261250a565b9050919050565b6125388161251d565b82525050565b6000602082019050612553600083018461252f565b92915050565b600081519050919050565b600082825260208201905092915050565b60005b83811015612593578082015181840152602081019050612578565b60008484015250505050565b6000601f19601f8301169050919050565b60006125bb82612559565b6125c58185612564565b93506125d5818560208601612575565b6125de8161259f565b840191505092915050565b6000602082019050818103600083015261260381846125b0565b905092915050565b600073ffffffffffffffffffffffffffffffffffffffff82169050919050565b60006126368261260b565b9050919050565b6126468161262b565b82525050565b6000602082019050612661600083018461263d565b92915050565b6126708161262b565b811461267b57600080fd5b50565b60008135905061268d81612667565b92915050565b600080604083850312156126aa576126a961239f565b5b60006126b88582860161267e565b92505060206126c985828601612485565b9150509250929050565b6000806000606084860312156126ec576126eb61239f565b5b60006126fa8682870161267e565b935050602061270b8682870161267e565b925050604061271c86828701612485565b9150509250925092565b600080fd5b7f4e487b7100000000000000000000000000000000000000000000000000000000600052604160045260246000fd5b6127638261259f565b810181811067ffffffffffffffff821117156127825761278161272b565b5b80604052505050565b6000612795612395565b90506127a1828261275a565b919050565b600067ffffffffffffffff8211156127c1576127c061272b565b5b602082029050602081019050919050565b600080fd5b60006127ea6127e5846127a6565b61278b565b9050808382526020820190506020840283018581111561280d5761280c6127d2565b5b835b818110156128365780612822888261267e565b84526020840193505060208101905061280f565b5050509392505050565b600082601f83011261285557612854612726565b5b81356128658482602086016127d7565b91505092915050565b6000602082840312156128845761288361239f565b5b600082013567ffffffffffffffff8111156128a2576128a16123a4565b5b6128ae84828501612840565b91505092915050565b6000602082840312156128cd576128cc61239f565b5b60006128db8482850161267e565b91505092915050565b600080fd5b600067ffffffffffffffff8211156129045761290361272b565b5b61290d8261259f565b9050602081019050919050565b82818337600083830152505050565b600061293c612937846128e9565b61278b565b905082815260208101848484011115612958576129576128e4565b5b61296384828561291a565b509392505050565b600082601f8301126129805761297f612726565b5b8135612990848260208601612929565b91505092915050565b6000602082840312156129af576129ae61239f565b5b600082013567ffffffffffffffff8111156129cd576129cc6123a4565b5b6129d98482850161296b565b91505092915050565b6129eb81612464565b82525050565b6000602082019050612a0660008301846129e2565b92915050565b612a158161242e565b8114612a2057600080fd5b50565b600081359050612a3281612a0c565b92915050565b60008060408385031215612a4f57612a4e61239f565b5b6000612a5d8582860161267e565b9250506020612a6e85828601612a23565b9150509250929050565b600067ffffffffffffffff821115612a9357612a9261272b565b5b612a9c8261259f565b9050602081019050919050565b6000612abc612ab784612a78565b61278b565b905082815260208101848484011115612ad857612ad76128e4565b5b612ae384828561291a565b509392505050565b600082601f830112612b0057612aff612726565b5b8135612b10848260208601612aa9565b91505092915050565b60008060008060808587031215612b3357612b3261239f565b5b6000612b418782880161267e565b9450506020612b528782880161267e565b9350506040612b6387828801612485565b925050606085013567ffffffffffffffff811115612b8457612b836123a4565b5b612b9087828801612aeb565b91505092959194509250565b60008060408385031215612bb357612bb261239f565b5b6000612bc18582860161267e565b9250506020612bd28582860161267e565b9150509250929050565b60048110612be957600080fd5b50565b600081359050612bfb81612bdc565b92915050565b60008060408385031215612c1857612c1761239f565b5b6000612c2685828601612485565b9250506020612c3785828601612bec565b9150509250929050565b7f4e487b7100000000000000000000000000000000000000000000000000000000600052602260045260246000fd5b60006002820490506001821680612c8857607f821691505b602082108103612c9b57612c9a612c41565b5b50919050565b6000606082019050612cb6600083018661263d565b612cc360208301856129e2565b612cd0604083018461263d565b949350505050565b7f4e487b7100000000000000000000000000000000000000000000000000000000600052603260045260246000fd5b7f4e487b7100000000000000000000000000000000000000000000000000000000600052601160045260246000fd5b6000612d4182612464565b91507fffffffffffffffffffffffffffffffffffffffffffffffffffffffffffffffff8203612d7357612d72612d07565b5b600182019050919050565b7f596f752063616e206d696e74206f6e6c79206f6e6520746f6b656e0000000000600082015250565b6000612db4601b83612564565b9150612dbf82612d7e565b602082019050919050565b60006020820190508181036000830152612de381612da7565b9050919050565b7f4d617820737570706c7920726561636865640000000000000000000000000000600082015250565b6000612e20601283612564565b9150612e2b82612dea565b602082019050919050565b60006020820190508181036000830152612e4f81612e13565b9050919050565b7f4f6e6c79206973737565722063616e206275726e000000000000000000000000600082015250565b6000612e8c601483612564565b9150612e9782612e56565b602082019050919050565b60006020820190508181036000830152612ebb81612e7f565b9050919050565b7f4f6e6c79206f776e65722063616e206275726e00000000000000000000000000600082015250565b6000612ef8601383612564565b9150612f0382612ec2565b602082019050919050565b60006020820190508181036000830152612f2781612eeb565b9050919050565b7f4f6e6c7920697373756572206f72206f776e65722063616e206275726e000000600082015250565b6000612f64601d83612564565b9150612f6f82612f2e565b602082019050919050565b60006020820190508181036000830152612f9381612f57565b9050919050565b7f4275726e696e67206e6f7420616c6c6f77656400000000000000000000000000600082015250565b6000612fd0601383612564565b9150612fdb82612f9a565b602082019050919050565b60006020820190508181036000830152612fff81612fc3565b9050919050565b60008190508160005260206000209050919050565b60006020601f8301049050919050565b600082821b905092915050565b6000600883026130687fffffffffffffffffffffffffffffffffffffffffffffffffffffffffffffffff8261302b565b613072868361302b565b95508019841693508086168417925050509392505050565b6000819050919050565b60006130af6130aa6130a584612464565b61308a565b612464565b9050919050565b6000819050919050565b6130c983613094565b6130dd6130d5826130b6565b848454613038565b825550505050565b600090565b6130f26130e5565b6130fd8184846130c0565b505050565b5b81811015613121576131166000826130ea565b600181019050613103565b5050565b601f8211156131665761313781613006565b6131408461301b565b8101602085101561314f578190505b61316361315b8561301b565b830182613102565b50505b505050565b600082821c905092915050565b60006131896000198460080261316b565b1980831691505092915050565b60006131a28383613178565b9150826002028217905092915050565b6131bb82612559565b67ffffffffffffffff8111156131d4576131d361272b565b5b6131de8254612c70565b6131e9828285613125565b600060209050601f83116001811461321c576000841561320a578287015190505b6132148582613196565b86555061327c565b601f19841661322a86613006565b60005b828110156132525784890151825560018201915060208501945060208101905061322d565b8683101561326f578489015161326b601f891682613178565b8355505b6001600288020188555050505b505050505050565b600081905092915050565b600061329a82612559565b6132a48185613284565b93506132b4818560208601612575565b80840191505092915050565b60006132cc828561328f565b91506132d8828461328f565b91508190509392505050565b60006040820190506132f960008301856129e2565b613306602083018461252f565b9392505050565b7f546f6b656e206973206c6f636b65640000000000000000000000000000000000600082015250565b6000613343600f83612564565b915061334e8261330d565b602082019050919050565b6000602082019050818103600083015261337281613336565b9050919050565b600081519050919050565b600082825260208201905092915050565b60006133a082613379565b6133aa8185613384565b93506133ba818560208601612575565b6133c38161259f565b840191505092915050565b60006080820190506133e3600083018761263d565b6133f0602083018661263d565b6133fd60408301856129e2565b818103606083015261340f8184613395565b905095945050505050565b600081519050613429816123d5565b92915050565b6000602082840312156134455761344461239f565b5b60006134538482850161341a565b91505092915050565b7f4e487b7100000000000000000000000000000000000000000000000000000000600052601260045260246000fd5b60006040820190506134a0600083018561263d565b6134ad60208301846129e2565b939250505056fea264697066735822122095f3fb03ccc6206d0705e2d5dbabcd63308fc287d6dfc8874d3289f282d27ee564736f6c63430008140033a26469706673582212206a9db93d91825a270017c059076feaaf6988cd2deb94d5aa49b05c1f1592d1cc64736f6c63430008140033",
  "linkReferences": {},
  "deployedLinkReferences": {}
}